:020000040800F2
:1000000000000220CD730008E9710008F7710008B4
:10001000FD7100080372000809720008000000006A
:10002000000000000000000000000000115A00085D
:100030000F72000800000000515C0008B95C000865
:100040001D7400081D7400081D7400081D7400084C
:100050001D7400081D7400081D7400081D7200083E
:100060001D7400081D7400081D7400081D7400082C
:100070001D7400081D7400081D7400081D7400081C
:100080001D7400081D7400081D7400081D7400080C
:100090001D7400081D7400081D7400081D740008FC
:1000A0001D7400081D7400081D7400081D740008EC
:1000B0001D7400082D7200081D7400081D740008CE
:1000C0001D7400081D7400081D7400081D740008CC
:1000D0001D7400081D740008417200081D7400089A
:1000E0001D7400081D7400081D7400081D740008AC
:1000F0001D7400081D7400081D7400081D7400089C
:100100001D7400081D7400081D7400081D7400088B
:100110001D7400081D7400081D7400081D7400087B
:100120001D7400081D7400081D7400081D7400086B
:100130001D74000800000000000000001D7400088D
:100140001D7400081D7400081D7400081D7400084B
:100150001D7400081D7400081D7400081D7400083B
:100160001D7400081D7400081D7400081D7400082B
:100170001D7400081D74000800000000000000004D
:080180001D7400081D74000845
:1001900010B5054C237833B9044B13B10448AFF3C1
:1001A00000800123237010BD7400002000000000B7
:1001B000947C000808B5034B1BB103490348AFF317
:1001C000008008BD0000000078000020947C00083A
:1001D00053B94AB9002908BF00281CBF4FF0FF31AE
:1001E0004FF0FF3000F072B9ADF1080C6DE904CEAC
:1001F00000F006F8DDF804E0DDE9022304B0704702
:100200002DE9F047089E04468846002B4BD18A42D0
:10021000154667D9B2FA82F24AB1C2F1200701FA53
:1002200002F320FA07F7954047EA030894404FEAA3
:10023000154E230CB8FBFEF71FFA85FC0EFB178842
:1002400043EA084307FB0CF1994209D9EB1807F17F
:10025000FF3080F01B81994240F21881023F2B440D
:100260005B1AA4B2B3FBFEF00EFB103344EA034466
:1002700000FB0CFCA44509D92C1900F1FF3380F0D8
:100280000781A44540F2048102382C4440EA07402B
:10029000A4EB0C0400271EB1D4400023C6E90043A0
:1002A0003946BDE8F0878B4209D9002E00F0EB807B
:1002B0000027C6E9000138463946BDE8F087B3FAA1
:1002C00083F7002F47D18B4202D3824200F2FA809B
:1002D000841A61EB030301209846002EE0D0C6E9A2
:1002E0000048DDE702B9FFDEB2FA82F2002A40F0F0
:1002F0008F80491B4FEA154E1FFA85F80127B1FB85
:10030000FEFC230C0EFB1C1143EA014308FB0CF11D
:10031000994207D9EB180CF1FF3002D2994200F252
:10032000CD808446591AA3B2B1FBFEF00EFB101427
:1003300043EA044408FB00F8A04507D92C1900F152
:10034000FF3302D2A04500F2B6801846A4EB0804A1
:1003500040EA0C409FE7C7F1200CBB4022FA0CFE9C
:100360004EEA030E01FA07F420FA0CF521FA0CF319
:100370004FEA1E482543B3FBF8F92C0C08FB193350
:100380001FFA8EFA44EA034309FB0AF49C4202FA7C
:1003900007F200FA07F10BD91EEB030309F1FF3056
:1003A00080F087809C4240F28480A9F10209734466
:1003B0001B1BADB2B3FBF8F008FB103345EA034456
:1003C00000FB0AFAA24508D91EEB040400F1FF3332
:1003D0006BD2A24569D90238744440EA0940A0FBB7
:1003E0000289A4EB0A044C45C2464B4654D351D073
:1003F000002E69D0B1EB0A0564EB030404FA0CFC8F
:10040000FD40FC404CEA0505C6E90054002747E7DB
:10041000C2F1200320FA03F7954001FA02F021FA15
:1004200003F34FEA154E3843010CB3FBFEF71FFAF6
:1004300085F80EFB173341EA034107FB08F38B42B3
:1004400004FA02F407D9691807F1FF3C2FD28B4256
:100450002DD9023F2944CB1A81B2B3FBFEF00EFB2B
:10046000103341EA034100FB08F38B4207D96918B6
:1004700000F1FF3C17D28B4215D902382944C91A22
:1004800040EA07473BE73746304609E70746E7E6D5
:100490001846FBE64145ABD2B8EB020A69EB0E0207
:1004A00001381346A4E76046E9E7184695E7674632
:1004B000D1E781467CE702382C4447E7ACF1020CD7
:1004C0002B442FE7384608E73746E9E6704700BF78
:1004D00010F8012B11F8013B012A28BF9A42F7D0EE
:1004E000D01A7047034613F8012B002AFBD1181AC3
:1004F000013870470000000000000000000000000C
:1005000001F0FF01102A2BDB10F0070F08D010F8C4
:10051000013B013A8B422DD010F0070F42B3F6D1C8
:10052000F0B441EA012141EA014122F007047FF0E1
:1005300000070023F0E80256083C85EA010586EA38
:10054000010685FA47F5A3FA87F586FA47F6A5FA74
:1005500087F68EB9EED1F0BC01F0FF0102F0070280
:1005600032B110F8013B013A83EA010313B1F8D12B
:100570000020704701387047002D06BF354603380C
:10058000073815F0010F07D1013015F4807F02BF45
:10059000013015F4C03F0130F0BC0138704700BF96
:1005A00080B400AF0A4B1B680A4AA2FB03239B09D5
:1005B000094A1360064B1B68084AA2FB03239B0CE5
:1005C000074A136000BFBD465DF8047B704700BF5B
:1005D0000C000020D34D62109400002083DE1B43EA
:1005E0009000002080B500AF074BDB68064A43F05F
:1005F0008073D360054B1B68044A43F0010313600A
:10060000FFF7CEFF00BF80BDF0ED00E0001000E07E
:1006100080B485B000AF78600B4B5B68FB600B4B20
:100620001A687B6802FB03F37B6000BF064B5A68C5
:10063000FB68D31A7A689A42F8D800BF1437BD46CF
:100640005DF8047B704700BF001000E094000020BC
:1006500080B485B000AF78600B4B5B68FB600B4BE0
:100660001A687B6802FB03F37B6000BF064B5A6885
:10067000FB68D31A7A689A42F8D800BF1437BD468F
:100680005DF8047B704700BF001000E09000002080
:1006900080B500AF0E4B1B680D4A43F40073136026
:1006A0000B4B1B680A4A43F480631360084B1B68BA
:1006B000074A43F480731360032000F0E6FC002037
:1006C00006F038FD06F00AFD0023184680BD00BF85
:1006D000003C024080B400AF064B1B781A46064B24
:1006E0001B681344044A136000BFBD465DF8047BD9
:1006F000704700BF040000209040002080B400AF8D
:10070000034B1B681846BD465DF8047B704700BF6D
:100710009040002080B584B000AF78600023FB7368
:100720007B68002B01D1012333E07B681B6C002B1D
:1007300009D1786805F036FD7B6800225A647B6831
:10074000002283F83C207B681B6C03F01003002B15
:1007500018D17B681B6C23F4885323F0020343F009
:1007600002027B681A64786800F0C4FA7B68002291
:100770005A647B681B6C23F0030343F001027B681F
:100780001A6401E00123FB737B68002283F83C209C
:10079000FB7B18461037BD4680BD000080B485B095
:1007A00000AF78600023BB607B6893F83C30012B7E
:1007B00001D10223A5E07B68012283F83C207B68FD
:1007C0001B689B6803F00103012B18D07B681B6832
:1007D0009A687B681B6842F001029A604C4B1B6868
:1007E0004C4AA2FB03239A0C13465B001344BB60E4
:1007F00002E0BB68013BBB60BB68002BF9D17B68A2
:100800001B689B6803F00103012B79D17B681B6C8B
:1008100023F4E06323F0010343F480727B681A64DD
:100820007B681B685B6803F48063002B07D07B68E0
:100830001B6C23F4405343F480527B681A647B683A
:100840001B6C03F48053B3F5805F06D17B685B6C4F
:1008500023F006027B685A6402E07B6800225A6437
:100860007B68002283F83C202B4BFB607B681B6875
:100870006FF022021A60FB685B6803F01F03002B15
:100880002AD17B681B68254A934215D07B681B6878
:10089000234A934205D1204B5B6803F01F03002BD2
:1008A0000AD07B681B681F4A934229D11A4B5B68A8
:1008B00003F01F030F2B23D87B681B689B6803F092
:1008C0004053002B1CD17B681B689A687B681B68AF
:1008D00042F080429A6013E07B681B680F4A9342A3
:1008E0000ED17B681B689B6803F04053002B07D137
:1008F0007B681B689A687B681B6842F080429A603C
:10090000002318461437BD465DF8047B704700BFCE
:100910000C00002083DE1B43002301400020014027
:10092000002101400022014080B483B000AF786014
:100930007B6893F83C30012B01D1022321E07B68D6
:10094000012283F83C207B681B689A687B681B68DF
:1009500022F001029A607B681B689B6803F0010328
:10096000002B09D17B681B6C23F4885323F001030F
:1009700043F001027B681A647B68002283F83C2004
:10098000002318460C37BD465DF8047B704780B5E0
:1009900084B000AF786039600023FB607B681B681F
:1009A0009B6803F48063B3F5806F13D17B681B6889
:1009B0009B6803F48073B3F5807F0BD17B681B6C5D
:1009C00043F020027B681A647B68002283F83C2095
:1009D00001235CE0FFF792FEF8601AE03B68B3F198
:1009E000FF3F16D03B68002B07D0FFF787FE02467B
:1009F000FB68D31A3A689A420BD27B681B6C43F0AF
:100A000004027B681A647B68002283F83C2003237D
:100A10003DE07B681B681B6803F00203022BDDD1FD
:100A20007B681B686FF012021A607B681B6C43F4D2
:100A300000727B681A647B681B689B6803F04053F4
:100A4000002B23D17B681B7E002B1FD17B681B688A
:100A5000DB6A03F47003002B06D07B681B689B687D
:100A600003F48063002B11D17B681B6C23F480722C
:100A70007B681A647B681B6C03F48053002B05D1E0
:100A80007B681B6C43F001027B681A6400231846E4
:100A90001037BD4680BD80B483B000AF78607B68FE
:100AA0001B68DB6C18460C37BD465DF8047B70474D
:100AB00080B485B000AF786039600023BB607B688C
:100AC00093F83C30012B01D1022305E17B68012220
:100AD00083F83C203B681B68092B25D97B681B6881
:100AE000D9683B681B689BB21A4613465B001344E7
:100AF0001E3B072202FA03F3DA437B681B680A40B5
:100B0000DA607B681B68D9683B689A683B681B6839
:100B10009BB2184603465B0003441E3B9A407B6829
:100B20001B680A43DA6022E07B681B6819693B682E
:100B30001B689BB21A4613465B001344072202FA55
:100B400003F3DA437B681B680A401A617B681B6801
:100B500019693B689A683B681B689BB21846034654
:100B60005B0003449A407B681B680A431A613B6838
:100B70005B68062B24D87B681B68596B3B685A68F6
:100B800013469B001344053B1F2202FA03F3DA438A
:100B90007B681B680A405A637B681B68596B3B681B
:100BA0001B689BB218463B685A6813469B00134467
:100BB000053B00FA03F27B681B680A435A634CE06A
:100BC0003B685B680C2B24D87B681B68196B3B68FF
:100BD0005A6813469B001344233B1F2202FA03F377
:100BE000DA437B681B680A401A637B681B68196BD1
:100BF0003B681B689BB218463B685A6813469B00CB
:100C00001344233B00FA03F27B681B680A431A6310
:100C100023E07B681B68D96A3B685A6813469B00CF
:100C20001344413B1F2202FA03F3DA437B681B683B
:100C30000A40DA627B681B68D96A3B681B689BB212
:100C400018463B685A6813469B001344413B00FA20
:100C500003F27B681B680A43DA62224BFB607B6805
:100C60001B68214A934209D13B681B68122B05D1AE
:100C7000FB685B6843F48002FB685A607B681B6812
:100C8000194A934223D13B681B68102B03D03B6861
:100C90001B68112B1BD1FB685B6843F40002FB68E7
:100CA0005A603B681B68102B11D1104B1B68104A0F
:100CB000A2FB03239A0C13469B0013445B00BB600A
:100CC00002E0BB68013BBB60BB68002BF9D17B68CD
:100CD000002283F83C20002318461437BD465DF8F7
:100CE000047B704700230140002001400C000020DD
:100CF00083DE1B4380B485B000AF7860794BFB6026
:100D0000FB685B6823F44032FB685A60FB685A68F2
:100D10007B685B681A43FB685A607B681B685A688B
:100D20007B681B6822F480725A607B681B68596874
:100D30007B681B691A027B681B680A435A607B68E0
:100D40001B685A687B681B6822F040725A607B6897
:100D50001B6859687B689A687B681B680A435A60FD
:100D60007B681B689A687B681B6822F400629A6043
:100D70007B681B6899687B68DA687B681B680A4334
:100D80009A607B689B6A584A934222D07B681B68B2
:100D90009A687B681B6822F070629A607B681B68A7
:100DA00099687B689A6A7B681B680A439A607B68CB
:100DB0001B689A687B681B6822F040529A607B68C7
:100DC0001B6899687B68DA6A7B681B680A439A60CB
:100DD0000FE07B681B689A687B681B6822F0706272
:100DE0009A607B681B689A687B681B6822F0405297
:100DF0009A607B681B689A687B681B6822F0020215
:100E00009A607B681B6899687B681B7E5A007B68C8
:100E10001B680A439A607B6893F82030002B1BD034
:100E20007B681B685A687B681B6842F400625A60E2
:100E30007B681B685A687B681B6822F460425A60B2
:100E40007B681B6859687B685B6A013B5A037B6857
:100E50001B680A435A6007E07B681B685A687B6816
:100E60001B6822F400625A607B681B68DA6A7B6840
:100E70001B6822F47002DA627B681B68D96A7B689F
:100E8000DB69013B1A057B681B680A43DA627B68F1
:100E90001B689A687B681B6822F400729A607B6802
:100EA0001B6899687B6893F830305A027B681B682E
:100EB0000A439A607B681B689A687B681B6822F407
:100EC00080629A607B681B6899687B685B699A029C
:100ED0007B681B680A439A6000BF1437BD465DF803
:100EE000047B7047002301400100000F80B485B0EF
:100EF00000AF78607B6803F00703FB600C4BDB6896
:100F0000BB60BA684FF6FF031340BB60FB681A0270
:100F1000BB68134343F0BF6343F40033BB60044A30
:100F2000BB68D36000BF1437BD465DF8047B7047D3
:100F300000ED00E080B400AF044BDB681B0A03F057
:100F400007031846BD465DF8047B704700ED00E0DE
:100F500080B483B000AF0346FB7197F90730002BD4
:100F60000BDBFB7903F01F02074997F907305B0998
:100F7000012000FA02F241F8232000BF0C37BD46E1
:100F80005DF8047B704700BF00E100E080B483B0EF
:100F900000AF0346FB7197F90730002B10DBFB799C
:100FA00003F01F02094997F907305B09012000FA95
:100FB00002F2203341F82320BFF34F8FBFF36F8F2E
:100FC00000BF0C37BD465DF8047B704700E100E0D0
:100FD00080B483B000AF03463960FB7197F90730E6
:100FE000002B0ADB3B68DAB20C4997F90730120193
:100FF000D2B20B4483F800230AE03B68DAB2084916
:10100000FB7903F00F03043B1201D2B20B441A76B2
:1010100000BF0C37BD465DF8047B704700E100E07F
:1010200000ED00E080B489B000AFF860B9607A608C
:10103000FB6803F00703FB61FB69C3F10703042BA3
:1010400028BF0423BB61FB690433062B02D9FB696B
:10105000033B00E000237B614FF0FF32BB6902FAE3
:1010600003F3DA43BB681A407B699A404FF0FF31C3
:101070007B6901FA03F3D9437B680B40134318469D
:101080002437BD465DF8047B704780B582B000AF61
:1010900078607868FFF72AFF00BF0837BD4680BD3B
:1010A00080B586B000AF0346B9607A60FB73002359
:1010B0007B61FFF73FFF78617A68B9687869FFF76D
:1010C000B1FF024697F90F3011461846FFF780FF2F
:1010D00000BF1837BD4680BD80B582B000AF034663
:1010E000FB7197F907301846FFF732FF00BF08374A
:1010F000BD4680BD80B582B000AF0346FB7197F955
:1011000007301846FFF742FF00BF0837BD4680BDD5
:1011100080B483B000AF78607B6893F83530DBB281
:10112000022B04D07B6880225A6501230CE07B6887
:10113000052283F835207B681B681A687B681B686A
:1011400022F001021A60002318460C37BD465DF8F4
:10115000047B704780B489B000AF786039600023A9
:101160007B6100233B610023BB610023FB616BE1DA
:101170000122FB6902FA03F37B613B681B687A6911
:1011800013403B613A697B699A4240F05A813B685F
:101190005B68012B0BD03B685B68022B07D03B6878
:1011A0005B68112B03D03B685B68122B30D17B68E6
:1011B0009B68BB61FB695B00032202FA03F3DB431C
:1011C000BA691340BB613B68DA68FB695B0002FAED
:1011D00003F3BA691343BB617B68BA699A607B68A1
:1011E0005B68BB610122FB6902FA03F3DB43BA6966
:1011F0001340BB613B685B681B0903F00102FB699C
:1012000002FA03F3BA691343BB617B68BA695A6097
:101210007B68DB68BB61FB695B00032202FA03F3B6
:10122000DB43BA691340BB613B689A68FB695B00AA
:1012300002FA03F3BA691343BB617B68BA69DA60E7
:101240003B685B68022B03D03B685B68122B23D1A1
:10125000FB69DA087B68083253F82230BB61FB690E
:1012600003F007039B000F2202FA03F3DB43BA6982
:101270001340BB613B681A69FB6903F007039B00DD
:1012800002FA03F3BA691343BB61FB69DA087B68AE
:101290000832B96943F822107B681B68BB61FB699F
:1012A0005B00032202FA03F3DB43BA691340BB611C
:1012B0003B685B6803F00302FB695B0002FA03F31F
:1012C000BA691343BB617B68BA691A603B685B68A3
:1012D00003F08053002B00F0B4800023FB605F4BD1
:1012E0005B6C5E4A43F4804353645C4B5B6C03F479
:1012F0008043FB60FB685A4AFB699B08023352F843
:101300002330BB61FB6903F003039B000F2202FA49
:1013100003F3DB43BA691340BB617B68514A9342D4
:101320002BD07B68504A934225D07B684F4A93422A
:101330001FD07B684E4A934219D07B684D4A934236
:1013400013D07B684C4A93420DD07B684B4A934242
:1013500007D07B684A4A934201D107230EE0082355
:101360000CE006230AE0052308E0042306E003233B
:1013700004E0022302E0012300E00023FA6902F006
:10138000030292009340BA691343BB613449FB697D
:101390009B080233BA6941F823203A4B1B68BB61B2
:1013A0003B69DB43BA691340BB613B685B6803F48C
:1013B0008033002B03D0BA693B691343BB61314AC8
:1013C000BB6913602F4B5B68BB613B69DB43BA6948
:1013D0001340BB613B685B6803F40033002B03D010
:1013E000BA693B691343BB61264ABB695360254B0D
:1013F0009B68BB613B69DB43BA691340BB613B68D7
:101400005B6803F48013002B03D0BA693B69134374
:10141000BB611C4ABB6993601A4BDB68BB613B69CB
:10142000DB43BA691340BB613B685B6803F400139C
:10143000002B03D0BA693B691343BB61114ABB69F6
:10144000D360FB690133FB61FB690F2B7FF690AE24
:1014500000BF2437BD465DF8047B7047003802406A
:101460000038014000000240000402400008024031
:10147000000C02400010024000140240001802401C
:10148000001C0240003C014080B483B000AF786093
:101490000B467B8013467B707B78002B03D07A88C9
:1014A0007B689A6103E07B881A047B689A6100BFBD
:1014B0000C37BD465DF8047B704780B483B000AF45
:1014C00078600B467B807B685A697B881A407B88F2
:1014D0009A4204D17B881A047B689A6102E07A8878
:1014E0007B689A6100BF0C37BD465DF8047B70478E
:1014F00080B582B000AF0346FB80084B5A69FB8879
:101500001340002B06D0054AFB885361FB88184620
:1015100005F08CF900BF0837BD4680BD003C014096
:1015200080B586B000AF78607B68002B01D10123C5
:101530005BE27B681B6803F00103002B75D0A34BB3
:101540009B6803F00C03042B0CD0A04B9B6803F0AA
:101550000C03082B12D19D4B5B6803F48003B3F599
:10156000800F0BD1994B1B6803F40033002B5BD029
:101570007B685B68002B57D1012336E27B685B6890
:10158000B3F5803F06D1914B1B68904A43F48033FA
:1015900013601DE07B685B68B3F5A02F0CD18B4B0B
:1015A0001B688A4A43F480231360884B1B68874A70
:1015B00043F4803313600BE0844B1B68834A23F4AD
:1015C00080331360814B1B68804A23F480231360AF
:1015D0007B685B68002B13D0FFF790F8386108E058
:1015E000FFF78CF802463B69D31A642B01D9032319
:1015F000FBE1764B1B6803F40033002BF0D014E0C2
:10160000FFF77CF8386108E0FFF778F802463B699D
:10161000D31A642B01D90323E7E16C4B1B6803F455
:101620000033002BF0D100E000BF7B681B6803F0A3
:101630000203002B63D0654B9B6803F00C03002B67
:101640000BD0624B9B6803F00C03082B1CD15F4B43
:101650005B6803F48003002B16D15C4B1B6803F01E
:101660000203002B05D07B68DB68012B01D001232E
:10167000BBE1564B1B6823F0F8027B681B69DB005B
:10168000524913430B603AE07B68DB68002B20D0A3
:101690004F4B01221A60FFF731F8386108E0FFF77D
:1016A0002DF802463B69D31A022B01D903239CE192
:1016B000464B1B6803F00203002BF0D0434B1B6822
:1016C00023F0F8027B681B69DB00404913430B6081
:1016D00015E03F4B00221A60FFF710F8386108E070
:1016E000FFF70CF802463B69D31A022B01D90323FA
:1016F0007BE1364B1B6803F00203002BF0D17B68C3
:101700001B6803F00803002B30D07B685B69002B5B
:1017100016D0304B01221A60FEF7F0FF386108E066
:10172000FEF7ECFF02463B69D31A022B01D90323D3
:101730005BE1264B5B6F03F00203002BF0D015E05A
:10174000244B00221A60FEF7D9FF386108E0FEF74B
:10175000D5FF02463B69D31A022B01D9032344E18A
:101760001A4B5B6F03F00203002BF0D17B681B6800
:1017700003F00403002B00F0A0800023FB75134B43
:101780001B6C03F08053002B0FD10023BB600F4B69
:101790001B6C0E4A43F0805313640C4B1B6C03F01C
:1017A0008053BB60BB680123FB750B4B1B6803F4C4
:1017B0008073002B21D1084B1B68074A43F48073C8
:1017C0001360FEF79BFF386111E000BF0038024054
:1017D00000004742800E474200700040FEF78EFF37
:1017E00002463B69D31A022B01D90323FDE0814B4A
:1017F0001B6803F48073002BF0D07B689B68012B7F
:1018000006D17D4B1B6F7C4A43F0010313671CE03C
:101810007B689B68052B0CD1774B1B6F764A43F096
:1018200004031367744B1B6F734A43F00103136780
:101830000BE0714B1B6F704A23F0010313676E4B73
:101840001B6F6D4A23F0040313677B689B68002BB2
:1018500015D0FEF753FF38610AE0FEF74FFF02464E
:101860003B69D31A41F28832934201D90323BCE089
:10187000614B1B6F03F00203002BEED014E0FEF768
:101880003DFF38610AE0FEF739FF02463B69D31A93
:1018900041F28832934201D90323A6E0564B1B6FD5
:1018A00003F00203002BEED1FB7D012B05D1524B3F
:1018B0001B6C514A23F0805313647B689B69002B97
:1018C00000F092804C4B9B6803F00C03082B5CD01B
:1018D0007B689B69022B41D1484B00221A60FEF7BE
:1018E0000DFF386108E0FEF709FF02463B69D31A95
:1018F000022B01D9032378E03F4B1B6803F00073F0
:10190000002BF0D17B68DA697B681B6A1A437B681D
:101910005B6A9B011A437B689B6A5B08013B1B0463
:101920001A437B68DB6A1B06334913434B60334B16
:1019300001221A60FEF7E2FE386108E0FEF7DEFEE3
:1019400002463B69D31A022B01D903234DE02A4BEF
:101950001B6803F00073002BF0D045E0274B0022FA
:101960001A60FEF7CBFE386108E0FEF7C7FE0246BC
:101970003B69D31A022B01D9032336E01E4B1B68A7
:1019800003F00073002BF0D12EE07B689B69012BE4
:1019900001D1012329E0184B5B68FB60FB6803F46D
:1019A00080027B68DB699A421CD1FB6803F03F022E
:1019B0007B681B6A9A4215D1FA6847F6C0731340D8
:1019C0007A68526A93420DD1FB6803F440327B6817
:1019D0009B6A9A4206D1FB6803F070627B68DB6AFF
:1019E0009A4201D0012300E0002318461837BD4673
:1019F00080BD00BF007000400038024060004742D8
:101A000080B584B000AF786039607B68002B01D16D
:101A10000123CCE0684B1B6803F00F033A689A423D
:101A20000CD9654B3A68D2B21A70634B1B6803F04D
:101A30000F033A689A4201D00123B8E07B681B6823
:101A400003F00203002B20D07B681B6803F0040323
:101A5000002B05D0594B9B68584A43F4E0539360E0
:101A60007B681B6803F00803002B05D0534B9B6871
:101A7000524A43F460439360504B9B6823F0F0025A
:101A80007B689B684D4913438B607B681B6803F040
:101A90000103002B44D07B685B68012B07D1474BC7
:101AA0001B6803F40033002B19D101237FE07B680E
:101AB0005B68022B03D07B685B68032B07D13F4B2D
:101AC0001B6803F00073002B09D101236FE03B4B2F
:101AD0001B6803F00203002B01D1012367E0374BA1
:101AE0009B6823F003027B685B68344913438B6077
:101AF000FEF704FEF8600AE0FEF700FE0246FB680F
:101B0000D31A41F28832934201D903234FE02B4B81
:101B10009B6803F00C027B685B689B009A42EBD1E8
:101B2000254B1B6803F00F033A689A420CD2224BF4
:101B30003A68D2B21A70204B1B6803F00F033A6860
:101B40009A4201D0012332E07B681B6803F0040352
:101B5000002B08D0194B9B6823F4E0527B68DB68AC
:101B6000164913438B607B681B6803F00803002B46
:101B700009D0124B9B6823F460427B681B69DB0031
:101B80000E4913438B6000F021F801460B4B9B6814
:101B90001B0903F00F030A4AD35C21FA03F3094A35
:101BA0001360094B1B68184605F0C4FA0023184659
:101BB0001037BD4680BD00BF003C024000380240E7
:101BC000387F00080C00002000000020F0B585B030
:101BD00000AF00237B600023FB6000233B600023F9
:101BE000BB60634B9B6803F00C03042B07D0082BEE
:101BF00008D0002B40F0B4805E4BBB60B3E05E4B7E
:101C0000BB60B0E05A4B5B6803F03F037B60584B0E
:101C10005B6803F48003002B4AD0554B5B689B093B
:101C20004FF0000440F2FF114FF0000203EA0105FB
:101C300004EA0206294632464FF000034FF0000442
:101C4000540144EAD1644B0119462246491B62EB18
:101C500006024FF000034FF00004940144EA91643F
:101C60008B015B1A64EB02044FF000014FF000029D
:101C7000E20042EA5372D9000B4614465B1944EB6A
:101C800006044FF000014FF00002620242EAD35214
:101C900059020B461446184621467B684FF0000453
:101CA0001A462346FEF794FA03460C46FB6049E0C9
:101CB0002F4B5B689B094FF0000440F2FF114FF07F
:101CC000000203EA010504EA0206294632464FF003
:101CD00000034FF00004540144EAD1644B0119465B
:101CE0002246491B62EB06024FF000034FF000044E
:101CF000940144EA91648B015B1A64EB02044FF097
:101D000000014FF00002E20042EA5372D9000B4694
:101D100014465B1944EB06044FF000014FF000023B
:101D2000A20242EA935299020B46144618462146F3
:101D30007B684FF000041A462346FEF749FA034633
:101D40000C46FB600A4B5B681B0C03F0030301337A
:101D50005B003B60FA683B68B2FBF3F3BB6002E0F8
:101D6000044BBB6000BFBB6818461437BD46F0BDCE
:101D7000003802400024F40000127A0080B400AF62
:101D8000034B1B681846BD465DF8047B704700BFD7
:101D90000C00002080B500AFFFF7F0FF0146054BB7
:101DA0009B689B0A03F00703034AD35C21FA03F301
:101DB000184680BD00380240487F000880B500AF5B
:101DC000FFF7DCFF0146054B9B685B0B03F0070345
:101DD000034AD35C21FA03F3184680BD0038024061
:101DE000487F000880B483B000AF786039607B68BA
:101DF0000F221A60124B9B6803F003027B685A6043
:101E00000F4B9B6803F0F0027B689A600C4B9B6859
:101E100003F4E0527B68DA60094B9B68DB0803F44B
:101E2000E0527B681A61074B1B6803F00F023B68A6
:101E30001A6000BF0C37BD465DF8047B704700BFD9
:101E400000380240003C024080B582B000AF7860AC
:101E50007B68002B01D101231CE07B685B79DBB23E
:101E6000002B05D17B6800221A71786805F096F87E
:101E70007B6802225A717B681B681A687B681B6842
:101E800042F004021A607B6801225A717B680022CA
:101E90009A60002318460837BD4680BD80B582B0E1
:101EA00000AF78607B68002B01D1012356E07B688E
:101EB00000229A627B6893F85130DBB2002B06D186
:101EC0007B68002283F85020786805F0BFF87B68B3
:101ED000022283F851207B681B681A687B681B68A4
:101EE00022F040021A607B685A687B689B681A433C
:101EF0007B68DB681A437B681B691A437B685B69F4
:101F00001A437B689B6903F400731A437B68DB699F
:101F10001A437B681B6A42EA03017B689A6A7B6802
:101F20001B680A431A607B689B691B0C03F0040161
:101F30007B685A6A7B681B680A435A607B681B6827
:101F4000DA697B681B6822F40062DA617B68002230
:101F50005A657B68012283F8512000231846083710
:101F6000BD4680BD80B588B000AFF860B9603B6009
:101F70001346FB800023FB77FB6893F85030012B5E
:101F800001D102231EE1FB68012283F85020FEF7F5
:101F9000B5FBB861FB88FB82FB6893F85130DBB27C
:101FA000012B02D00223FB7703E1BB68002B02D098
:101FB000FB88002B02D10123FB77FAE0FB680322A8
:101FC00083F85120FB6800225A65FB68BA681A63DF
:101FD000FB68FA889A86FB68FA88DA86FB68002232
:101FE0009A63FB6800229A87FB680022DA87FB6805
:101FF00000225A64FB6800221A64FB689B68B3F5F0
:10200000004F07D1FB681B681A68FB681B6842F425
:1020100080421A60FB681B681B6803F04003402B7A
:1020200007D0FB681B681A68FB681B6842F0400217
:102030001A60FB68DB68B3F5006F4BD1FB685B6827
:10204000002B02D0FB8A012B3ED1FB681B6B1A8848
:10205000FB681B68DA60FB681B6B9A1CFB681A63E1
:10206000FB68DB8E9BB2013B9AB2FB68DA862BE001
:10207000FB681B689B6803F00203022B12D1FB680C
:102080001B6B1A88FB681B68DA60FB681B6B9A1C69
:10209000FB681A63FB68DB8E9BB2013B9AB2FB685C
:1020A000DA8611E0FEF72AFB0246BB69D31A3A68CA
:1020B0009A4203D83B68B3F1FF3F02D13B68002B43
:1020C00002D10323FB7774E0FB68DB8E9BB2002B0D
:1020D000CED14CE0FB685B68002B02D0FB8A012B61
:1020E00040D1FB681A6BFB681B680C3312781A70BE
:1020F000FB681B6B5A1CFB681A63FB68DB8E9BB288
:10210000013B9AB2FB68DA862CE0FB681B689B688F
:1021100003F00203022B13D1FB681A6BFB681B68E8
:102120000C3312781A70FB681B6B5A1CFB681A631D
:10213000FB68DB8E9BB2013B9AB2FB68DA8611E04A
:10214000FEF7DCFA0246BB69D31A3A689A4203D812
:102150003B68B3F1FF3F02D13B68002B02D1032360
:10216000FB7726E0FB68DB8E9BB2002BCDD1BA69F2
:102170003968F86800F0A4FB0346002B02D0FB6826
:1021800020225A65FB689B68002B0AD100233B6123
:10219000FB681B68DB683B61FB681B689B683B61F5
:1021A0003B69FB685B6D002B02D00123FB7700E0ED
:1021B00000BFFB68012283F85120FB68002283F8EE
:1021C0005020FB7F18462037BD4680BD80B588B0C3
:1021D00002AFF860B9603B601346FB800023FB75DB
:1021E000FB685B68B3F5827F12D1FB689B68002BAC
:1021F0000ED1FB68042283F85120FA883B680093D3
:102200001346BA68B968F86800F0E9F80346E2E0F6
:10221000FB6893F85030012B01D10223DBE0FB680F
:10222000012283F85020FEF769FA3861FB6893F8C1
:102230005130DBB2012B02D00223FB75C2E0BB6838
:10224000002B02D0FB88002B02D10123FB75B9E0E3
:10225000FB68042283F85120FB6800225A65FB6862
:10226000BA689A63FB68FA889A87FB68FA88DA8703
:10227000FB6800221A63FB6800229A86FB68002232
:10228000DA86FB6800221A64FB6800225A64FB6845
:102290009B68B3F5004F07D1FB681B681A68FB68A1
:1022A0001B6822F480421A60FB681B681B6803F0FD
:1022B0004003402B07D0FB681B681A68FB681B684B
:1022C00042F040021A60FB68DB68002B62D12EE00E
:1022D000FB681B689B6803F00103012B15D1FB68A9
:1022E0001B6803F10C02FB689B6B1278D2B21A7068
:1022F000FB689B6B5A1CFB689A63FB68DB8F9BB285
:10230000013B9AB2FB68DA8711E0FEF7F7F9024663
:102310003B69D31A3A689A4203D83B68B3F1FF3F4E
:1023200002D13B68002B02D10323FB754AE0FB6816
:10233000DB8F9BB2002BCBD131E0FB681B689B6825
:1023400003F00103012B13D1FB681B68DA68FB68FB
:102350009B6B92B21A80FB689B6B9A1CFB689A631A
:10236000FB68DB8F9BB2013B9AB2FB68DA8711E016
:10237000FEF7C4F902463B69D31A3A689A4203D879
:102380003B68B3F1FF3F02D13B68002B02D103232E
:10239000FB7517E0FB68DB8F9BB2002BCDD13A6950
:1023A0003968F86800F027FA0346002B02D0FB6872
:1023B00020225A65FB685B6D002B02D00123FB7560
:1023C00000E000BFFB68012283F85120FB68002277
:1023D00083F85020FB7D18461837BD4680BD80B578
:1023E0008CB000AFF860B9607A607B800123FB623B
:1023F000002387F82B30FB6893F85030012B01D174
:1024000002238AE1FB68012283F85020FEF776F967
:102410007862FB6893F8513087F82330FB685B687B
:10242000FB617B887B8397F82330012B0FD0FB69FE
:10243000B3F5827F07D1FB689B68002B03D197F827
:102440002330042B03D0022387F82B305BE1BB68D9
:10245000002B05D07B68002B02D07B88002B03D19A
:10246000012387F82B304EE1FB6893F85130DBB243
:10247000042B03D0FB68052283F85120FB6800225F
:102480005A65FB687A689A63FB687A88DA87FB6822
:102490007A889A87FB68BA681A63FB687A88DA8652
:1024A000FB687A889A86FB6800221A64FB6800221F
:1024B0005A64FB681B681B6803F04003402B07D07D
:1024C000FB681B681A68FB681B6842F040021A60D0
:1024D000FB68DB68B3F5006F78D1FB685B68002BA5
:1024E00002D07B8B012B66D1FB681B6B1A88FB68C3
:1024F0001B68DA60FB681B6B9A1CFB681A63FB683D
:10250000DB8E9BB2013B9AB2FB68DA8653E0FB6834
:102510001B689B6803F00203022B1BD1FB68DB8E58
:102520009BB2002B16D0FB6A012B13D1FB681B6BEF
:102530001A88FB681B68DA60FB681B6B9A1CFB68D7
:102540001A63FB68DB8E9BB2013B9AB2FB68DA86AA
:102550000023FB62FB681B689B6803F00103012BEF
:1025600019D1FB68DB8F9BB2002B14D0FB681B6872
:10257000DA68FB689B6B92B21A80FB689B6B9A1CB3
:10258000FB689A63FB68DB8F9BB2013B9AB2FB68E6
:10259000DA870123FB62FEF7B1F802467B6AD31AA1
:1025A000BA6B9A4207D8BB6BB3F1FF3F03D003234A
:1025B00087F82B30A7E0FB68DB8E9BB2002BA6D1FF
:1025C000FB68DB8F9BB2002BA1D17CE0FB685B68D2
:1025D000002B02D07B8B012B6BD1FB681A6BFB6845
:1025E0001B680C3312781A70FB681B6B5A1CFB6853
:1025F0001A63FB68DB8E9BB2013B9AB2FB68DA86FA
:1026000057E0FB681B689B6803F00203022B1CD198
:10261000FB68DB8E9BB2002B17D0FB6A012B14D119
:10262000FB681A6BFB681B680C3312781A70FB6826
:102630001B6B5A1CFB681A63FB68DB8E9BB2013B69
:102640009AB2FB68DA860023FB62FB681B689B6812
:1026500003F00103012B19D1FB68DB8F9BB2002B28
:1026600014D0FB681B68DA68FB689B6BD2B21A70E7
:10267000FB689B6B5A1CFB689A63FB68DB8F9BB201
:10268000013B9AB2FB68DA870123FB62FEF736F85A
:1026900002467B6AD31ABA6B9A4203D8BB6BB3F17A
:1026A000FF3F02D1BB6B002B03D1032387F82B30F4
:1026B00029E0FB68DB8E9BB2002BA2D1FB68DB8F8D
:1026C0009BB2002B9DD17A6AB96BF86800F0F8F8DC
:1026D0000346002B06D0012387F82B30FB6820220D
:1026E0005A6510E0FB689B68002B0BD100237B61CF
:1026F000FB681B68DB687B61FB681B689B687B6110
:102700007B6900E000BFFB68012283F85120FB6871
:10271000002283F8502097F82B3018463037BD46FA
:1027200080BD80B584B000AFF860B9603B601346EF
:10273000FB714CE03B68B3F1FF3F48D0FDF7DEFF93
:102740000246BB69D31A3A689A4202D93B68002B09
:102750003DD1FB681B685A68FB681B6822F0E002E9
:102760005A60FB685B68B3F5827F11D1FB689B6898
:10277000B3F5004F04D0FB689B68B3F5806F07D1B9
:10278000FB681B681A68FB681B6822F040021A602D
:10279000FB689B6AB3F5005F0FD1FB681B681A6882
:1027A000FB681B6822F400521A60FB681B681A68F9
:1027B000FB681B6842F400521A60FB68012283F830
:1027C0005120FB68002283F8502003230FE0FB68B0
:1027D0001B689A68BB681340BA689A420CBF012311
:1027E0000023DBB21A46FB799A42A3D10023184694
:1027F0001037BD4680BD80B586B002AFF860B960C5
:102800007A60FB685B68B3F5827F11D1FB689B68D7
:10281000B3F5004F04D0FB689B68B3F5806F07D118
:10282000FB681B681A68FB681B6822F040021A608C
:10283000FB685B68B3F5827F2AD1FB689B68B3F5C0
:10284000806F12D07B680093BB6800228021F868FB
:10285000FFF767FF0346002B2DD0FB685B6D43F04D
:102860002002FB685A65032326E07B680093BB685F
:1028700000220121F868FFF754FF0346002B1AD00D
:10288000FB685B6D43F02002FB685A65032313E08D
:102890007B680093BB6800220121F868FFF741FFC5
:1028A0000346002B07D0FB685B6D43F02002FB68FA
:1028B0005A65032300E0002318461037BD4680BD4B
:1028C00080B588B002AFF860B9607A601B4B1B68B6
:1028D0001B4AA2FB03235B0D4FF47A7202FB03F346
:1028E0007B61FB685B68B3F5827F12D17B680093E4
:1028F000BB6800228021F868FFF713FF0346002B16
:1029000016D0FB685B6D43F02002FB685A65032319
:102910000FE07B69002B0AD07B69013B7B61FB6880
:102920001B689B6803F08003802BF2D000E000BF9F
:10293000002318461837BD4680BD00BF0C0000209C
:10294000819F5E1680B582B000AF78607B68002BF7
:1029500001D101231DE07B6893F83D30DBB2002BF1
:1029600006D17B68002283F83C20786800F015F8D7
:102970007B68022283F83D207B681A687B680433F9
:102980001946104600F068F97B68012283F83D2063
:10299000002318460837BD4680BD80B483B000AF21
:1029A000786000BF0C37BD465DF8047B704780B48B
:1029B00085B000AF78607B681B68DA687B681B684D
:1029C00042F00102DA607B681B689B6803F0070332
:1029D000FB60FB68062B07D07B681B681A687B6866
:1029E0001B6842F001021A60002318461437BD46E6
:1029F0005DF8047B704780B582B000AF78607B687B
:102A00001B681B6903F00203022B22D17B681B6841
:102A1000DB6803F00203022B1BD17B681B686FF09D
:102A200002021A617B6801221A777B681B689B6926
:102A300003F00303002B03D0786800F0EEF805E004
:102A4000786800F0E0F8786800F0F1F87B68002220
:102A50001A777B681B681B6903F00403042B22D1DF
:102A60007B681B68DB6803F00403042B1BD17B68C5
:102A70001B686FF004021A617B6802221A777B6878
:102A80001B689B6903F44073002B03D0786800F047
:102A9000C4F805E0786800F0B6F8786800F0C7F888
:102AA0007B6800221A777B681B681B6903F00803A8
:102AB000082B22D17B681B68DB6803F00803082B16
:102AC0001BD17B681B686FF008021A617B680422C7
:102AD0001A777B681B68DB6903F00303002B03D0C4
:102AE000786800F09AF805E0786800F08CF878686B
:102AF00000F09DF87B6800221A777B681B681B69D1
:102B000003F01003102B22D17B681B68DB6803F0F5
:102B10001003102B1BD17B681B686FF010021A6129
:102B20007B6808221A777B681B68DB6903F44073B3
:102B3000002B03D0786800F070F805E0786800F0AA
:102B400062F8786800F073F87B6800221A777B6877
:102B50001B681B6903F00103012B0ED17B681B6806
:102B6000DB6803F00103012B07D17B681B686FF062
:102B700001021A61786804F0E3F97B681B681B693D
:102B800003F08003802B0ED17B681B68DB6803F0A9
:102B90008003802B07D17B681B686FF080021A616D
:102BA000786800F003F97B681B681B6903F0400339
:102BB000402B0ED17B681B68DB6803F04003402B81
:102BC00007D17B681B686FF040021A61786800F0DB
:102BD00038F87B681B681B6903F02003202B0ED19B
:102BE0007B681B68DB6803F02003202B07D17B6820
:102BF0001B686FF020021A61786800F0CDF800BF02
:102C00000837BD4680BD80B483B000AF786000BF98
:102C10000C37BD465DF8047B704780B483B000AFCD
:102C2000786000BF0C37BD465DF8047B704780B408
:102C300083B000AF786000BF0C37BD465DF8047B01
:102C4000704780B483B000AF786000BF0C37BD46DA
:102C50005DF8047B7047000080B485B000AF7860F9
:102C600039607B681B68FB607B68404A934213D0E5
:102C70007B68B3F1804F0FD07B683D4A93420BD005
:102C80007B683C4A934207D07B683B4A934203D01F
:102C90007B683A4A934208D1FB6823F07003FB60DB
:102CA0003B685B68FA681343FB607B682F4A93427A
:102CB0002BD07B68B3F1804F27D07B682C4A93429E
:102CC00023D07B682B4A93421FD07B682A4A9342C9
:102CD0001BD07B68294A934217D07B68284A9342CD
:102CE00013D07B68274A93420FD07B68264A9342D1
:102CF0000BD07B68254A934207D07B68244A9342D5
:102D000003D07B68234A934208D1FB6823F44073C5
:102D1000FB603B68DB68FA681343FB60FB6823F0E9
:102D200080023B685B691343FB607B68FA681A604A
:102D30003B689A687B68DA623B681A687B689A62CB
:102D40007B680A4A934203D07B680C4A934203D1C2
:102D50003B681A697B681A637B6801225A6100BF6D
:102D60001437BD465DF8047B704700BF000001408A
:102D70000004004000080040000C00400004014036
:102D8000004001400044014000480140001800405C
:102D9000001C00400020004080B483B000AF786089
:102DA00000BF0C37BD465DF8047B704780B483B02C
:102DB00000AF786000BF0C37BD465DF8047B7047FC
:102DC00080B582B000AF78607B68002B01D1012311
:102DD0003FE07B6893F83930DBB2002B06D17B688B
:102DE000002283F83820786804F0A0FA7B68242257
:102DF00083F839207B681B68DA687B681B6822F4DB
:102E00000052DA60786800F097FB7B681B681A69EB
:102E10007B681B6822F490421A617B681B685A69C0
:102E20007B681B6822F02A025A617B681B68DA689B
:102E30007B681B6842F40052DA607B680022DA6328
:102E40007B68202283F839207B68202283F83A208F
:102E5000002318460837BD4680BD80B588B002AF54
:102E6000F860B9603B601346FB8000237B61FB6820
:102E700093F83930DBB2202B40F08380BB68002B05
:102E800002D0FB88002B01D101237BE0FB6893F883
:102E90003830012B01D1022374E0FB68012283F852
:102EA0003820FB680022DA63FB68212283F839208E
:102EB000FDF724FC7861FB68FA889A84FB68FA883D
:102EC000DA84FB68002283F8382042E0FB68DB8C60
:102ED0009BB2013B9AB2FB68DA84FB689B68B3F54E
:102EE000805F22D13B6800937B6900228021F868D3
:102EF00000F0B6F90346002B01D0032342E0BB6883
:102F00003B613B691B881A46FB681B68C2F30802D9
:102F10005A60FB681B69002B03D1BB680233BB609E
:102F200017E0BB680133BB6013E03B6800937B692B
:102F300000228021F86800F093F90346002B01D0AD
:102F400003231FE0BB685A1CBA601A78FB681B6831
:102F50005A60FB68DB8C9BB2002BB7D13B680093B7
:102F60007B6900224021F86800F07AF90346002BC3
:102F700001D0032306E0FB68202283F839200023D8
:102F800000E0022318461837BD4680BD80B485B0E6
:102F900000AFF860B9601346FB80FB6893F83A30E5
:102FA000DBB2202B40D1BB68002B02D0FB88002B6A
:102FB00001D1012339E0FB6893F83830012B01D1AE
:102FC000022332E0FB68012283F83820FB68BA68EC
:102FD0009A62FB68FA889A85FB68FA88DA85FB684A
:102FE0000022DA63FB68222283F83A20FB68002281
:102FF00083F83820FB681B68DA68FB681B6842F4BA
:103000008072DA60FB681B685A69FB681B6842F0D3
:1030100001025A61FB681B68DA68FB681B6842F0B2
:103020002002DA60002300E0022318461437BD4670
:103030005DF8047B7047000080B588B000AF786011
:103040007B681B681B68FB617B681B68DB68BB6176
:103050007B681B685B697B6100233B610023FB602D
:10306000FB6903F00F033B613B69002B0DD1FB694A
:1030700003F02003002B08D0BB6903F02003002BD2
:1030800003D0786800F0D6F9D1E03B69002B00F05E
:10309000B0807B6903F00103002B05D1BB6903F409
:1030A0009073002B00F0A580FB6903F00103002B57
:1030B0000AD0BB6903F48073002B05D07B68DB6BFF
:1030C00043F001027B68DA63FB6903F00403002B21
:1030D0000AD07B6903F00103002B05D07B68DB6B12
:1030E00043F002027B68DA63FB6903F00203002B02
:1030F0000AD07B6903F00103002B05D07B68DB6BF2
:1031000043F004027B68DA63FB6903F00803002BD9
:103110000FD0BB6903F02003002B04D17B6903F0BF
:103120000103002B05D07B68DB6B43F008027B6852
:10313000DA637B68DB6B002B78D0FB6903F020033C
:10314000002B07D0BB6903F02003002B02D0786866
:1031500000F070F97B681B685B6903F04003402B4B
:103160000CBF01230023DBB2FB607B68DB6B03F049
:103170000803002B02D1FB68002B31D0786800F0E7
:10318000B9F87B681B685B6903F04003402B23D1CF
:103190007B681B685A697B681B6822F040025A6191
:1031A0007B685B6B002B13D07B685B6B214A1A65D5
:1031B0007B685B6B1846FDF7ABFF0346002B16D010
:1031C0007B685B6B1B6D7A68526B104698470EE00C
:1031D000786800F03BF80AE0786800F037F806E01D
:1031E000786800F033F87B680022DA631EE000BFE5
:1031F0001CE0FB6903F08003002B08D0BB6903F0DF
:103200008003002B03D0786800F0A6F80FE0FB697C
:1032100003F04003002B0AD0BB6903F04003002BEE
:1032200005D0786800F0EEF800BF00E000BF20375E
:10323000BD4680BD3133000880B483B000AF7860F4
:1032400000BF0C37BD465DF8047B704780B483B087
:1032500000AF786000BF0C37BD465DF8047B704757
:1032600080B584B000AFF860B9603B601346FB7175
:103270002CE0BB69B3F1FF3F28D0BB69002B07D01E
:10328000FDF73CFA02463B68D31ABA699A421DD24E
:10329000FB681B68DA68FB681B6822F4D072DA608E
:1032A000FB681B685A69FB681B6822F001025A61BF
:1032B000FB68202283F83920FB68202283F83A201B
:1032C000FB68002283F8382003230FE0FB681B68AB
:1032D0001A68BB681340BA689A420CBF01230023E6
:1032E000DBB21A46FB799A42C3D000231846103746
:1032F000BD4680BD80B483B000AF78607B681B683A
:10330000DA687B681B6822F49072DA607B681B685D
:103310005A697B681B6822F001025A617B6820228F
:1033200083F83A2000BF0C37BD465DF8047B704738
:1033300080B584B000AF78607B689B6BFB60FB68F6
:103340000022DA85FB680022DA84F868FFF77EFF46
:1033500000BF1037BD4680BD80B485B000AF786037
:103360007B6893F83930DBB2212B44D17B689B68B2
:10337000B3F5805F1AD17B681B6AFB60FB681B8812
:103380001A467B681B68C2F308025A607B681B6997
:10339000002B05D17B681B6A9A1C7B681A620EE0C1
:1033A0007B681B6A5A1C7B681A6208E07B681B6A90
:1033B000591C7A6811621A787B681B685A607B68AE
:1033C000DB8C9BB2013B9BB27A681946D184002BFF
:1033D0000FD17B681B68DA687B681B6822F080026B
:1033E000DA607B681B68DA687B681B6842F0400221
:1033F000DA60002300E0022318461437BD465DF86A
:10340000047B704780B582B000AF78607B681B6832
:10341000DA687B681B6822F04002DA607B68202251
:1034200083F839207868FFF707FF0023184608372C
:10343000BD4680BD80B584B000AF78607B6893F8EE
:103440003A30DBB2222B71D17B689B68B3F5805F89
:1034500023D17B689B6AFB607B681B69002B0ED1C4
:103460007B681B685B689BB2C3F308039AB2FB6876
:103470001A807B689B6A9A1C7B689A6229E07B6849
:103480001B685B689BB2DBB29AB2FB681A807B68F0
:103490009B6A5A1C7B689A621BE07B681B69002B45
:1034A0000AD17B681B6858687B689B6A591C7A68DC
:1034B0009162C2B21A700CE07B681B685B68DAB27A
:1034C0007B689B6A581C7968886202F07F02D2B2DE
:1034D0001A707B68DB8D9BB2013B9BB27A68194600
:1034E000D185002B20D17B681B68DA687B681B685C
:1034F00022F02002DA607B681B68DA687B681B6850
:1035000022F48072DA607B681B685A697B681B68EA
:1035100022F001025A617B68202283F83A20786801
:1035200003F0A4FA002302E0002300E0022318467F
:103530001037BD4680BD00002DE9F04F85B000AFCB
:1035400078607B681B681B6923F440517B68DA68EC
:103550007B681B680A431A617B689A687B681B69F1
:103560001A437B685B691A437B68DB691343FB6022
:103570007B681B68DB6823F4164323F00C037A682E
:103580001268F9680B43D3607B681B685B6923F49E
:1035900040717B689A697B681B680A435A617B6843
:1035A000DB69B3F5004F40F08B817B681B68C14A33
:1035B000934205D07B681B68BF4A934240F0BD80B0
:1035C000FEF7FCFBB860BB681D464FF00006A8463E
:1035D000B14618EB080349EB09049846A14618EBDD
:1035E000050849EB06094FF000014FF000024FEAD1
:1035F000C90242EA58724FEAC8018846914618EB60
:10360000050049EB06017B685B681D464FF000062C
:103610006B1946EB06041A462346FCF7D9FD034610
:103620000C461A46A54BA3FB02235B094FEA03187D
:10363000BB681D464FF00006A946B24619EB0903C8
:103640004AEB0A049946A24619EB05094AEB060A19
:103650004FF000014FF000024FEACA0242EA5972ED
:103660004FEAC9018946924619EB05004AEB06016B
:103670007B685B681D464FF000066B1946EB06043D
:103680001A462346FCF7A4FD03460C461A468B4B0C
:10369000A3FB02135B09642101FB03F3D31ADB00D4
:1036A0003233864AA2FB03235B095B0003F4F87301
:1036B0009844BB681D464FF00006A946B24619EB78
:1036C00009034AEB0A049946A24619EB05094AEB9D
:1036D000060A4FF000014FF000024FEACA0242EA28
:1036E00059724FEAC9018946924619EB05004AEB27
:1036F00006017B685B681D464FF000066B1946EBC0
:1037000006041A462346FCF763FD03460C461A4698
:103710006A4BA3FB02135B09642101FB03F3D31A79
:10372000DB003233654AA2FB03235B0903F0070287
:103730007B681B6842449A606FE2FEF72BFBB8601F
:10374000BB681D464FF00006A846B14618EB0803BB
:1037500049EB09049846A14618EB050849EB060910
:103760004FF000014FF000024FEAC90242EA5872DE
:103770004FEAC8018846914618EB050049EB06015F
:103780007B685B681D464FF000066B1946EB06042C
:103790001A462346FCF71CFD03460C461A46474BC7
:1037A000A3FB02235B094FEA0318BB681D464FF0D9
:1037B0000006A946B24619EB09034AEB0A049946EA
:1037C000A24619EB05094AEB060A4FF000014FF03B
:1037D00000024FEACA0242EA59724FEAC901894619
:1037E000924619EB05004AEB06017B685B681D46B3
:1037F0004FF000066B1946EB06041A462346FCF709
:10380000E7FC03460C461A462C4BA3FB02135B094C
:10381000642101FB03F3D31ADB003233274AA2FBF6
:1038200003235B095B0003F4F8739844BB681D46EF
:103830004FF00006A946B24619EB09034AEB0A0409
:103840009946A24619EB05094AEB060A4FF000011A
:103850004FF000024FEACA0242EA59724FEAC90128
:103860008946924619EB05004AEB06017B685B68C6
:103870001D464FF000066B1946EB06041A46234618
:10388000FCF7A6FC03460C461A460C4BA3FB02139E
:103890005B09642101FB03F3D31ADB003233074ACF
:1038A000A2FB03235B0903F007027B681B68424409
:1038B0009A60B2E100100140001401401F85EB51F5
:1038C0007B681B68D74A934205D07B681B68D64A41
:1038D000934240F0D180FEF771FAB860BB689A4617
:1038E0004FF0000BD046D94618EB080349EB09040A
:1038F0009846A14618EB0A0849EB0B094FF0000166
:103900004FF000024FEAC90242EA58724FEAC8017A
:10391000884691461AEB08054BEB09067B685B6805
:1039200019464FF000024FF000034FF000049400DE
:1039300044EA91748B001A46234628463146FCF728
:1039400047FC03460C461A46B84BA3FB02235B090F
:103950004FEA0318BB689B464FF0000CD946E2467D
:1039600019EB09034AEB0A049946A24619EB0B0925
:103970004AEB0C0A4FF000014FF000024FEACA0276
:1039800042EA59724FEAC901894692461BEB090582
:103990004CEB0A067B685B6819464FF000024FF05B
:1039A00000034FF00004940044EA91748B001A461F
:1039B000234628463146FCF70BFC03460C461A46C4
:1039C0009A4BA3FB02135B09642101FB03F3D31A97
:1039D0001B013233954AA2FB03235B0903F0F0037A
:1039E0009844BB689B464FF0000CD946E24619EB61
:1039F00009034AEB0A049946A24619EB0B094AEB64
:103A00000C0A4FF000014FF000024FEACA0242EAEE
:103A100059724FEAC901894692461BEB09054CEBE6
:103A20000A067B685B6819464FF000024FF00003FE
:103A30004FF00004940044EA91748B001A46234628
:103A400028463146FCF7C4FB03460C461A46774B22
:103A5000A3FB02135B09642101FB03F3D31A1B01CF
:103A60003233724AA2FB03235B0903F00F027B6827
:103A70001B6842449A60D0E0FEF78CF9B860BB68DE
:103A80009A464FF0000BD046D94618EB080349EB95
:103A900009049846A14618EB0A0849EB0B094FF0B8
:103AA00000014FF000024FEAC90242EA58724FEAA1
:103AB000C801884691461AEB08054BEB09067B685E
:103AC0005B6819464FF000024FF000034FF000040E
:103AD000940044EA91748B001A46234628463146E6
:103AE000FCF776FB03460C461A46504BA3FB022319
:103AF0005B094FEA0318BB689B464FF0000CD946A0
:103B0000E24619EB09034AEB0A049946A24619EB6F
:103B10000B094AEB0C0A4FF000014FF000024FEA8C
:103B2000CA0242EA59724FEAC901894692461BEB22
:103B300009054CEB0A067B685B6819464FF00002EA
:103B40004FF000034FF00004940044EA91748B009E
:103B50001A46234628463146FCF73AFB03460C46F4
:103B60001A46324BA3FB02135B09642101FB03F3EA
:103B7000D31A1B0132332D4AA2FB03235B0903F046
:103B8000F0039844BB689B464FF0000CD946E246D0
:103B900019EB09034AEB0A049946A24619EB0B09F3
:103BA0004AEB0C0A4FF000014FF000024FEACA0244
:103BB00042EA59724FEAC901894692461BEB090550
:103BC0004CEB0A067B685B6819464FF000024FF029
:103BD00000034FF00004940044EA91748B001A46ED
:103BE000234628463146FCF7F3FA03460C461A46AC
:103BF0000E4BA3FB02135B09642101FB03F3D31AF1
:103C00001B013233094AA2FB03235B0903F00F02B5
:103C10007B681B6842449A60FFE700BF1437BD46CB
:103C2000BDE8F08F00100140001401401F85EB51EA
:103C300080B584B000AF78600123BB730023FB73B1
:103C400000233B7300237B7300233B7200237B72B2
:103C500044233B7314E07B685B6998477B681B686F
:103C600007F1080107F10C00022298477B689B6965
:103C700098477B68DB6905209847FB7B0133FB7322
:103C80007B7AFF2BE7D1BB7B18461037BD4680BD42
:103C900080B582B000AF78607B68DB6898477B684E
:103CA000DB690A2098477B681B6998477868FFF7AB
:103CB000BFFF786800F0B4F87868FFF7B9FF00BF7D
:103CC0000837BD4680BDB0B588B000AFF860B960B8
:103CD0001346FB806B461D460023FB77FB88013BA8
:103CE000BB61F9884FF000024FF000034FF0000471
:103CF000D40044EA5174CB00F9884FF000024FF031
:103D000000034FF00004D40044EA5174CB00FB8858
:103D10000733DB08DB00ADEB030D6B4600337B6143
:103D20007B69FA880021184603F0AFFBF868FFF7BB
:103D30007FFF0346002B0ED0FB685B699847FB684A
:103D40001B687969FA88B8689847FB689B69984747
:103D50000023FB7701E0E223FB7797F91F30AD46A4
:103D600018462037BD46B0BDB0B588B000AFF8608A
:103D7000B9601346FB716B461D460023FB77FB7948
:103D8000BB61FB79013319464FF000024FF000038D
:103D90004FF00004D40044EA5174CB00FB790133A6
:103DA00019464FF000024FF000034FF00004D4001A
:103DB00044EA5174CB00FB7901330733DB08DB00A5
:103DC000ADEB030D6B4600337B617869FB79013302
:103DD0001A46002103F059FB7B6944221A70F868E7
:103DE000FFF726FF0346002B11D0FB685B6998475D
:103DF000FB681B687869FA7992B2013292B2B968AD
:103E00009847FB689B6998470023FB7701E0E22312
:103E1000FB7797F91F30AD4618462037BD46B0BD39
:103E200080B584B000AF786000233B7300233B7201
:103E30007B685B6998477B681B6807F1080107F19D
:103E40000C00012298477B689B69984700BF103798
:103E5000BD4680BD80B588B000AF78600023FB7799
:103E60000023BB7707F10C0311220021184603F051
:103E70000CFB07F10C03022219467868FFF774FF68
:103E80000346DAB2BB7F1344DBB2BB777B7BFF2BED
:103E900002D1FF23FB7701E00023FB77FB7F18466D
:103EA0002037BD4680BD0000B0B5E2B000AF3B1D7D
:103EB0001860002387F8833107F10803434A184646
:103EC000114640F26D131A4603F0D4FA07F10803C5
:103ED000C7F884313B1D1868FFF7DAFE69E06B46CE
:103EE0001D46D7F884311B7887F8823197F8820114
:103EF0000346013BC7F87C31C1B24FF000024FF0DE
:103F000000034FF00004D40044EA5174CB00C1B266
:103F10004FF000024FF000034FF00004D40044EAD9
:103F20005174CB0003460733DB08DB00ADEB030D18
:103F30006B460033C7F87831D7F8783197F882218B
:103F40000021184603F0A1FAD7F884310133C7F8ED
:103F50008431D7F8783197F88221D7F88411184640
:103F600003F088FAD7F8781197F882319AB23B1D9E
:103F70001868FFF7A8FE034687F8833197F9833165
:103F8000002B13D197F88231D7F884211344C7F856
:103F900084313B1D1868FFF74BFE0346002B03D10D
:103FA000D82387F8833102E0AD4602E000BFAD467A
:103FB00004E0D7F884311B78002B90D197F9833136
:103FC000184607F5C477BD46B0BD00BFAC7C0008FD
:103FD00080B58AB000AF7860002387F8273007F1FA
:103FE000100311220021184603F04FFAA34B1B685F
:103FF000FB6007F10C03042219467868FFF763FEA3
:104000000346DAB297F827301344DBB287F827303B
:1040100007F11003092219467868FFF7A5FE034649
:10402000DAB297F827301344DBB287F8273097F9D4
:104030002730002B40F01C817B7CFF2B40F0188147
:104040003B7D87F82630BB7D87F825303B7E87F89F
:10405000243097F82630DB09DBB203F00103002B94
:1040600014BF01230023DAB27B6883F8282097F875
:1040700026309B1103F00103002B14BF0123002302
:10408000DAB27B6883F8292097F826305B1103F0B9
:104090000103002B14BF01230023DAB27B6883F8ED
:1040A0002A2097F826301B1103F00103002B14BFC0
:1040B00001230023DAB27B6883F82B2097F826309F
:1040C000DB1003F00103002B14BF01230023DAB23D
:1040D0007B6883F82C2097F826305B1003F00103EF
:1040E000002B14BF01230023DAB27B6883F82D2054
:1040F00097F8263003F00103002B14BF012300239F
:10410000DAB27B6883F82E2097F825309B1103F0F4
:104110000103002B14BF01230023DAB27B6883F86C
:104120002F2097F825305B1103F00103002B14BFFB
:1041300001230023DAB27B6883F8302097F825301A
:104140001B1103F00103002B14BF01230023DAB27B
:104150007B6883F8312097F82530DB1003F00103EA
:10416000002B14BF01230023DAB27B6883F83220CE
:1041700097F825309B1003F00103002B14BF012397
:104180000023DAB27B6883F8332097F825305B1080
:1041900003F00103002B14BF01230023DAB27B6874
:1041A00083F8342097F8253003F00103002B14BF67
:1041B00001230023DAB27B6883F8352097F8243096
:1041C0009B1103F00103002B14BF01230023DAB27B
:1041D0007B6883F8362097F824305B1103F00103E5
:1041E000002B14BF01230023DAB27B6883F8372049
:1041F00097F824301B1103F00103002B14BF012397
:104200000023DAB27B6883F8382097F82430DB107B
:1042100003F00103002B14BF01230023DAB27B68F3
:1042200083F8392097F824309B1003F00103002B0A
:1042300014BF01230023DAB27B6883F83A2097F891
:1042400024305B1003F00103002B14BF0123002373
:10425000DAB27B6883F83B2097F8243003F001033F
:10426000002B14BF01230023DAB27B6883F83C20C3
:1042700097F9273018462837BD4680BD247E0008B0
:1042800080B588B000AF78600023FB7707F10C039E
:1042900011220021184603F0F8F820233B72002376
:1042A0007B720023BB720023FB7207F10803042218
:1042B00019467868FFF707FD0346DAB2FB7F13441F
:1042C000DBB2FB7707F10C03092219467868FFF788
:1042D0004BFD0346DAB2FB7F1344DBB2FB7797F961
:1042E0001F30002B04D17B7BFF2B01D10023FB77F8
:1042F00097F91F3018462037BD4680BD80B584B081
:1043000000AF78600023FB737868FFF7B9FF0346BE
:10431000DAB2FB7B1344DBB2FB73786800F080F801
:104320000346DAB2FB7B1344DBB2FB7397F90F3021
:1043300018461037BD4680BD80B584B000AF7860A8
:1043400039600023FB7301233B7307F10C03012247
:1043500019467868FFF7B7FC0346DAB2FB7B1344D3
:10436000DBB2FB730A2239687868FFF7FDFC03466D
:10437000DAB2FB7B1344DBB2FB7397F90F301846BC
:104380001037BD4680BD000080B588B000AF7860B2
:104390000023FB7707F10C0311220021184603F0DC
:1043A00074F81E4B1B883B8107F108030222194653
:1043B0007868FFF788FC0346DAB2FB7F1344DBB270
:1043C000FB7707F10C03052219467868FFF7CCFC50
:1043D0000346DAB2FB7F1344DBB2FB7797F91F3059
:1043E000002B0DD17B7BFF2B0AD13A7C7B6883F8B5
:1043F0003D207A7C7B6883F83E200023FB7707E032
:104400007B68FF2283F83D207B68FF2283F83E20F3
:1044100097F91F3018462037BD4680BD287E00081A
:1044200080B588B000AF78600023FB7707F10C03FC
:1044300011220021184603F028F823233B720023A1
:104440007B7207F10803022219467868FFF73BFCEC
:104450000346DAB2FB7F1344DBB2FB7707F10C03B0
:10446000052219467868FFF77FFC0346DAB2FB7F26
:104470001344DBB2FB7797F91F30002B04D17B7B11
:10448000FF2B01D10023FB7797F91F301846203707
:10449000BD4680BD80B586B000AF78600846114645
:1044A0001A4603467B800B467B7013463B70002305
:1044B000FB750023BB7500237B7500233B757B7860
:1044C000002B01D00823BB753B78002B01D00823BB
:1044D0007B7597F82030002B01D008233B753223E1
:1044E0003B7300237B730023BB737B881B0A9BB247
:1044F000DBB2FB737B88DBB23B74BB7D7B747B7D63
:10450000BB743B7DFB7407F10C03082219467868E5
:10451000FFF7D9FB0346DAB2FB7D1344DBB2FB7530
:104520007868FFF785FB0346002B03D1FB7D3C3BFE
:10453000DBB2FB7597F9173018461837BD4680BDBA
:1045400080B584B000AF7860084611461A4603462D
:10455000FB700B463B801346BB700023FB7331237B
:104560003B72FB787B72BB781B01DBB2BB723B8872
:104570001B0A9BB2DBB203F01F03DBB2FB723B886A
:10458000DBB23B7307F10803052219467868FFF791
:104590009AFB0346DAB2FB7B1344DBB2FB73786809
:1045A000FFF746FB0346002B03D1FB7B3C3BDBB212
:1045B000FB7397F90F3018461037BD4680BDB0B574
:1045C00088B000AFF860B9601346FB806B461D46AB
:1045D0000023FB77FB88BB61FB88013319464FF052
:1045E00000024FF000034FF00004D40044EA51747D
:1045F000CB00FB88013319464FF000024FF0000357
:104600004FF00004D40044EA5174CB00FB8801331E
:104610000733DB08DB00ADEB030D6B4600337B613A
:104620007869FB8801331A46002102F02EFF7B696E
:1046300066221A707B690133FA88B968184602F05D
:1046400019FF7969FB8801339BB21A46F868FFF7B6
:104650003AFB0346DAB2FB7F1344DBB2FB7797F9F0
:104660001F30AD4618462037BD46B0BDB0B58AB044
:1046700000AFF860B9601346FB806B461D4600230F
:1046800087F826300A2387F82730FB883B62FB88AF
:10469000013319464FF000024FF000034FF00004C1
:1046A000D40044EA5174CB00FB88013319464FF023
:1046B00000024FF000034FF00004D40044EA5174AC
:1046C000CB00FB8801330733DB08DB00ADEB030DC8
:1046D0006B460033FB61F869FB8801331A46002101
:1046E00002F0D3FEFB88BB61FB88013319464FF013
:1046F00000024FF000034FF00004D40044EA51746C
:10470000CB00FB88013319464FF000024FF0000345
:104710004FF00004D40044EA5174CB00FB8801330D
:104720000733DB08DB00ADEB030D6B4600337B6129
:104730007869FB8801331A46002102F0A6FE7B69E6
:1047400077221A702AE0F868FFF772FA0346002B06
:1047500018D0FB685B699847FB681B687869F96942
:10476000FA88013292B29847FB689B699847FB69C7
:104770000133FA881946B86802F07CFE002387F8F6
:1047800026300FE0FB68DB690120984797F8273057
:10479000013B87F82730E22387F8263097F8273047
:1047A000002BD0D197F92630AD4618462837BD46A4
:1047B000B0BD80B588B000AF78600023BB77002320
:1047C000FB7707F10C0311220021184602F05DFE71
:1047D00015233B7200237B7207F10803022219465E
:1047E0007868FFF770FA0346DAB2BB7F1344DBB296
:1047F000BB7707F10C03102219467868FFF7B4FA6B
:104800000346DAB2BB7F1344DBB2BB7797F91E30A5
:10481000002B02D1FB7BFB7701E0FF23FB77FB7FC3
:1048200018462037BD4680BD80B584B000AF7860A3
:104830000023FB730A4B1B88BB8107F10C03022288
:1048400019467868FFF73FFA0346DAB2FB7B134458
:10485000DBB2FB7397F90F3018461037BD4680BDA9
:104860002C7E000880B584B000AF78600023FB7315
:104870000A4B1B88BB8107F10C030222194678689A
:10488000FFF721FA0346DAB2FB7B1344DBB2FB737A
:1048900097F90F3018461037BD4680BD307E0008AE
:1048A00080B586B000AFF8607A601A460B46FB729E
:1048B0001346BB720023FB750023BB75F868FFF736
:1048C0001DFD0346DAB2FB7D1344DBB2FB75F868CD
:1048D000FFF76FFF0346BB75BA7DBB7A9A421DD3C3
:1048E000BB7DFF2B1AD0BB7A9BB21A467968F86859
:1048F000FFF765FE0346DAB2FB7D1344DBB2FB75BE
:10490000BB7A9AB2F97A0823F868FFF719FE0346D2
:10491000DAB2FB7D1344DBB2FB7503E0FB7D323B77
:10492000DBB2FB7597F9173018461837BD4680BDC6
:1049300080B58AB000AF7860084611461A46034633
:10494000FB700B46BB7013467B70002387F8273043
:1049500007F1200304220021184602F096FD07F11A
:104960000C0311220021184602F08FFD122387F854
:104970002030FB7887F82130BB7887F822307B78AD
:1049800087F8233007F12003042219467868FFF7DF
:104990009AF90346DAB297F827301344DBB287F866
:1049A000273007F10C03102219467868FFF7DCF96D
:1049B0000346DAB297F827301344DBB287F8273082
:1049C00007F10C030233BA781946386B02F052FD36
:1049D0007B7BFF2B05D097F82730283BDBB287F88D
:1049E000273097F9273018462837BD4680BDB0B527
:1049F00086B000AF7860084611461A460346FB7041
:104A00000B46BB7013467B706B461D460023FB753F
:104A1000BB7803333B61BB78043319464FF0000287
:104A20004FF000034FF00004D40044EA5174CB006F
:104A3000BB78043319464FF000024FF000034FF0EB
:104A40000004D40044EA5174CB00BB78043307332C
:104A5000DB08DB00ADEB030D6B460033FB60F86851
:104A6000BB7804331A46002102F00FFDFB681122C7
:104A70001A70FB68FA785A70FB68BA789A70FB680B
:104A80007A78DA70FB680433BA78B96A184602F0AB
:104A9000F1FCF968BB789BB204339BB21A46786884
:104AA000FFF711F90346DAB2FB7D1344DBB2FB7565
:104AB0007868FFF7CFF90346FF2B03D0FB7D283B37
:104AC000DBB2FB7597F91730AD4618461837BD466F
:104AD000B0BD80B586B000AF78600023FB820023B4
:104AE0007B7507F1100302220021184602F0CDFC6D
:104AF00007F1080308220021184602F0C6FC14231F
:104B00003B7408237B7407F110030222194678686E
:104B1000FFF7D9F80346DAB27B7D1344DBB27B752D
:104B200007F10803082219467868FFF71DF90346C4
:104B3000DAB27B7D1344DBB27B753B7B1B021AB27E
:104B40007B7B1BB213431BB2FB827B7AFF2B03D010
:104B50007B7D283BDBB27B75FB8A18461837BD4648
:104B600080BD80B586B000AF78600023FB82002353
:104B70007B7507F1100302220021184602F085FC24
:104B800007F1080308220021184602F07EFC1423D6
:104B90003B7410237B7407F11003022219467868D6
:104BA000FFF791F80346DAB27B7D1344DBB27B75E5
:104BB00007F10803082219467868FFF7D5F803467D
:104BC000DAB27B7D1344DBB27B75BB7B1B021AB26E
:104BD000FB7B1BB213431BB2FB827B7AFF2B03D000
:104BE0007B7D283BDBB27B75FB8A18461837BD46B8
:104BF00080BD80B586B002AF78600B46FB700023A5
:104C0000FB7300233B7300233B72FB783B7307F17C
:104C10000C0300930123042222217868FFF7E7FEAA
:104C20000346DAB2FB7B1344DBB2FB7307F10803E4
:104C300000930123042222217868FFF779FE0346BE
:104C4000DAB2FB7B1344DBB2FB733A7B3B7A534013
:104C5000DAB2FB781340DBB2002B07D097F90F30A4
:104C6000002B03D0FB7B013BDBB2FB7397F90F30CA
:104C700018461037BD4680BD80B586B000AF78605D
:104C80000023FB7507F10C030A220021184602F0ED
:104C9000FCFB07F10C0319467868FFF74DFBFB7B23
:104CA000442B02D13B7C632B03D0FB7D0A3BDBB260
:104CB000FB7597F9173018461837BD4680BD80B48C
:104CC00085B000AF0346FB800023FB60B7F90630D8
:104CD000842B05D0B7F90620FB6813440333FB602F
:104CE000FB6818461437BD465DF8047B704780B5F5
:104CF00000AF00F0DBFA0023184680BDF0B589B0A4
:104D000004AF786039607B685B69002B20D07B68DA
:104D10009B69002B1CD07B685C687B681D687B6886
:104D20001E697B68B3F908301846FFF7C8FF0146D3
:104D30007B685B697A6892690292019300913B6893
:104D400032462946204600F0EDF80346FB601CE0A1
:104D50007B685C687B681D687B681B699EB27B68AA
:104D6000B3F908301846FFF7AAFF024607F10C0313
:104D7000019300923B6832462946204600F02CF908
:104D80000346012B01D0002300E0FB6818461437CE
:104D9000BD46F0BD80B584B000AF78607B68FB6035
:104DA000FB68002B01D0FB6800E00123184600F0EF
:104DB00049FA002318461037BD4680BD80B483B041
:104DC00000AF78607B6803F108027B685A607B68FB
:104DD0004FF0FF329A607B6803F108027B68DA606B
:104DE0007B6803F108027B681A617B6800221A6005
:104DF00000BF0C37BD465DF8047B704780B483B0BC
:104E000000AF78607B6800221A6100BF0C37BD4696
:104E10005DF8047B704780B485B000AF786039607E
:104E20007B685B68FB603B68FA685A60FB689A685D
:104E30003B689A60FB689B683A685A60FB683A680E
:104E40009A603B687A681A617B681B685A1C7B68A9
:104E50001A6000BF1437BD465DF8047B704780B40C
:104E600085B000AF786039603B681B68BB60BB6889
:104E7000B3F1FF3F03D17B681B69FB600CE07B68EB
:104E80000833FB6002E0FB685B68FB60FB685B6803
:104E90001B68BA689A42F6D2FB685A683B685A6047
:104EA0003B685B683A689A603B68FA689A60FB689E
:104EB0003A685A603B687A681A617B681B685A1CBA
:104EC0007B681A6000BF1437BD465DF8047B7047ED
:104ED00080B485B000AF78607B681B69FB607B683D
:104EE0005B687A6892689A607B689B687A685268A7
:104EF0005A60FB685B687A689A4203D17B689A685B
:104F0000FB685A607B6800221A61FB681B685A1EA6
:104F1000FB681A60FB681B6818461437BD465DF8CD
:104F2000047B704780B58EB004AFF860B9607A60DA
:104F30003B607B6B002B09D14FF0500383F311884A
:104F4000BFF36F8FBFF34F8F3B62FEE7BB6B002B4E
:104F500009D14FF0500383F31188BFF36F8FBFF374
:104F60004F8FFB61FEE754233B613B69542B09D013
:104F70004FF0500383F31188BFF36F8FBFF34F8F50
:104F8000BB61FEE73B69BB6B002B1ED07B6B002B2C
:104F90001BD0BB6B7B627B6A7A6B1A637B6A0222D3
:104FA00083F85120002303937B6A029307F11403D3
:104FB00001933B6B00933B687A68B968F86800F02E
:104FC00050F8786A00F0D4F801E000237B617B6937
:104FD00018462837BD4680BD80B58CB004AFF86058
:104FE000B9603B601346FB80FB889B00184600F0CD
:104FF000B1FE78617B69002B0ED0542000F0AAFE30
:10500000F861FB69002B03D0FB697A691A6305E03C
:10501000786900F061FF01E00023FB61FB69002B70
:1050200017D0FB69002283F85120FA8800230393EC
:10503000FB690293FB6A0193BB6A00933B68B96802
:10504000F86800F00EF8F86900F092F80123BB61EF
:1050500002E04FF0FF33BB61BB6918462037BD4605
:1050600080BD80B588B000AFF860B9607A603B6001
:105070003B6B1A6B7B6803F18043013B9B0013443D
:10508000BB61BB6923F00703BB61BB6903F0070386
:10509000002B09D04FF0500383F31188BFF36F8FBB
:1050A000BFF34F8F7B61FEE7BB68002B1FD000234F
:1050B000FB6112E0BA68FB69134419783A6BFB692B
:1050C000134434330A461A70BA68FB6913441B78D8
:1050D000002B06D0FB690133FB61FB690F2BE9D97B
:1050E00000E000BF3B6B002283F8432003E03B6BF2
:1050F000002283F83420BB6A062B01D90623BB6249
:105100003B6BBA6ADA623B6BBA6A5A643B6B002249
:105110009A643B6B04331846FFF770FE3B6B183301
:105120001846FFF76BFE3B6B3A6B1A61BB6AC3F123
:1051300007023B6B9A613B6B3A6B5A623B6B0022F6
:10514000DA643B6B002283F850203A68F968B8694A
:1051500000F0FEFB02463B6B1A60FB6A002B02D09C
:10516000FB6A3A6B1A6000BF2037BD4680BD000065
:1051700080B582B000AF786000F010FD2A4B1B684C
:105180000133294A1360294B1B68002B09D1274A98
:105190007B681360244B1B68012B10D100F0B8FA18
:1051A0000DE0234B1B68002B09D1204B1B68DA6AEA
:1051B0007B68DB6A9A4202D81C4A7B6813601D4BED
:1051C0001B6801331B4A13607B68DB6A01229A402B
:1051D000194B1B681343184A13607B68DA6A13463D
:1051E0009B0013449B00154A1A447B6804331946FC
:1051F0001046FFF710FE00F0FFFC0D4B1B68002B64
:105200000ED00A4B1B68DA6A7B68DB6A9A4207D2C7
:105210000B4B4FF080521A60BFF34F8FBFF36F8F6D
:1052200000BF0837BD4680BD9801002098000020CF
:10523000A4010020B4010020A00100209C00002057
:1052400004ED00E080B584B000AF78600023FB601F
:105250007B68002B16D0134B1B68002B09D04FF036
:10526000500383F31188BFF36F8FBFF34F8FBB6081
:10527000FEE700F079F80021786800F003FB00F009
:1052800081F8F860FB68002B07D1074B4FF0805284
:105290001A60BFF34F8FBFF36F8F00BF1037BD464B
:1052A00080BD00BFC001002004ED00E080B58AB0E1
:1052B00004AF0023BB6000237B603A46391D07F131
:1052C0000803184600F0F0FF39687B68BA6802925C
:1052D00001930023009300230A461D491D48FFF750
:1052E00021FE02461C4B1A601B4B1B68002B02D090
:1052F00001237B6101E000237B617B69012B15D1D8
:105300004FF0500383F31188BFF36F8FBFF34F8FBC
:105310003B61124B4FF0FF321A60114B01221A60B1
:10532000104B00221A6000F09BFB0DE07B69B3F18B
:10533000FF3F09D14FF0500383F31188BFF36F8F04
:10534000BFF34F8FFB60FEE700BF1837BD4680BD3F
:105350003C7E0008E1560008BC010020B801002096
:10536000A40100209C01002080B400AF044B1B6806
:105370000133034A136000BFBD465DF8047B7047EC
:10538000C001002080B584B000AF0023FB60002383
:10539000BB60414B1B68002B09D14FF0500383F3D6
:1053A0001188BFF36F8FBFF34F8F3B60FEE700F0B4
:1053B000F5FB394B1B68013B374A1360364B1B68C2
:1053C000002B61D1354B1B68002B5DD02EE0344B98
:1053D000DB68DB68FB60FB6818331846FFF778FD75
:1053E000FB6804331846FFF773FDFB68DB6A012294
:1053F0009A402C4B1B6813432A4A1360FB68DA6AF5
:1054000013469B0013449B00274A1A44FB6804334D
:1054100019461046FFF7FFFCFB68DA6A234B1B684E
:10542000DB6A9A4202D3224B01221A601C4B1B6892
:10543000002BCCD1FB68002B01D000F003FA1D4BF0
:105440001B687B607B68002B10D000F037F80346A8
:10545000002B02D0164B01221A607B68013B7B6057
:105460007B68002BF1D1134B00221A60104B1B6894
:10547000002B09D00123BB600F4B4FF080521A6004
:10548000BFF34F8FBFF36F8F00F0B6FBBB681846BA
:105490001037BD4680BD00BFC0010020980100202C
:1054A00058010020A00100209C000020980000204E
:1054B000AC010020A801002004ED00E080B586B01A
:1054C00000AF00237B614E4B1B68002B40F08780B0
:1054D0004C4B1B6801333B614A4A3B6913603B6993
:1054E000002B1FD1484B1B681B68002B09D04FF0C5
:1054F000500383F31188BFF36F8FBFF34F8F3B606F
:10550000FEE7414B1B68FB60404B1B683E4A136043
:105510003E4AFB6813603E4B1B6801333C4A1360F4
:1055200000F090F93B4B1B683A699A4248D3364BDE
:105530001B681B68002B04D1364B4FF0FF321A60FA
:105540003EE0314B1B68DB68DB68BB60BB685B68B7
:105550007B603A697B689A4203D22E4A7B6813606B
:105560002EE0BB6804331846FFF7B2FCBB689B6AA9
:10557000002B04D0BB6818331846FFF7A9FCBB68A2
:10558000DB6A01229A40244B1B681343224A1360B2
:10559000BB68DA6A13469B0013449B001F4A1A44F7
:1055A000BB68043319461046FFF735FCBB68DA6A5E
:1055B0001B4B1B68DB6A9A42B9D301237B61B6E7B8
:1055C000174B1B68DA6A154913469B0013449B006E
:1055D0000B441B68012B07D901237B6104E0114BAD
:1055E0001B6801330F4A13600F4B1B68002B01D05F
:1055F00001237B617B6918461837BD4680BD00BF1B
:10560000C00100209C010020500100205401002016
:10561000B0010020B8010020A00100209C00002063
:1056200098000020A8010020AC01002080B487B0C1
:1056300000AF264B1B68002B03D0254B01221A60BC
:105640003EE0234B00221A60224B1B68FB60FB6884
:10565000B3FA83F3FB72FB7AC3F11F037B611E492C
:105660007A6913469B0013449B000B441B68002B74
:1056700009D14FF0500383F31188BFF36F8FBFF34D
:105680004F8F7B60FEE77A6913469B0013449B00B3
:10569000114A13443B613B695B685A683B695A6035
:1056A0003B695A683B6908339A4204D13B695B689D
:1056B0005A683B695A603B695B68DB68074A13605C
:1056C00000BF1C37BD465DF8047B7047C001002059
:1056D000AC010020A00100209C00002098000020C8
:1056E00080B582B000AF786000F052F8064B1B68BE
:1056F000012BF9D9054B4FF080521A60BFF34F8F41
:10570000BFF36F8FF0E700BF9C00002004ED00E0C6
:1057100080B582B000AF00237B600CE07A6813464E
:105720009B0013449B00124A13441846FFF746FBA4
:105730007B6801337B607B68062BEFD90D48FFF750
:105740003DFB0D48FFF73AFB0C48FFF737FB0C48D1
:10575000FFF734FB0B48FFF731FB0B4B054A1A6090
:105760000A4B054A1A6000BF0837BD4680BD00BF1E
:105770009C000020280100203C010020580100204E
:105780006C01002084010020500100205401002001
:1057900080B582B000AF19E000F000FA0F4BDB6873
:1057A000DB687B607B6804331846FFF791FB0C4B8A
:1057B0001B68013B0A4A13600A4B1B68013B094AFC
:1057C000136000F019FA786800F00EF8054B1B68BA
:1057D000002BE1D100BF0837BD4680BD6C01002021
:1057E000980100208001002080B584B000AF78606F
:1057F0007B6893F85130002B08D17B681B6B1846EF
:1058000000F06AFB786800F067FB17E07B6893F8AC
:105810005130012B03D1786800F05EFB0EE07B680D
:1058200093F85130022B09D04FF0500383F31188C5
:10583000BFF36F8FBFF34F8FFB60FEE700BF1037E2
:10584000BD4680BD80B483B000AF0C4B1B681B68A5
:10585000002B04D10A4B4FF0FF321A6008E0074BCF
:105860001B68DB68DB687B607B685B68044A1360ED
:1058700000BF0C37BD465DF8047B70475001002027
:10588000B801002080B584B000AF78603960294B42
:105890001B68FB60284B1B6804331846FFF718FB96
:1058A0000346002B0BD1244B1B68DB6A012202FA52
:1058B00003F3DA43214B1B681340204A13607B68D3
:1058C000B3F1FF3F0AD13B68002B07D01A4B1B688E
:1058D000043319461A48FFF79EFA26E0FA687B68F7
:1058E0001344BB60144B1B68BA685A60BA68FB6803
:1058F0009A4209D2134B1A680F4B1B68043319469E
:105900001046FFF7ACFA10E00F4B1A680A4B1B6801
:10591000043319461046FFF7A2FA0C4B1B68BA680D
:105920009A4202D2094ABB68136000BF1037BD46D5
:1059300080BD00BF9C01002098000020A001002035
:10594000840100205401002050010020B8010020F3
:1059500080B485B000AFF860B9607A60FB68043B42
:10596000FB60FB684FF080721A60FB68043BFB60D1
:10597000BB6823F00102FB681A60FB68043BFB6014
:105980000C4AFB681A60FB68143BFB607A68FB6892
:105990001A60FB68043BFB60FB686FF002021A6050
:1059A000FB68203BFB60FB6818461437BD465DF87A
:1059B000047B7047B959000880B485B000AF00235C
:1059C0007B60114B1B68B3F1FF3F09D04FF05003D0
:1059D00083F31188BFF36F8FBFF34F8FFB60FEE738
:1059E0004FF0500383F31188BFF36F8FBFF34F8FD6
:1059F000BB6000BF7B68002BFCD000BF1437BD46E6
:105A00005DF8047B704700BF080000200000000024
:105A1000074B19680868B0E8F04F80F30988BFF3B6
:105A20006F8F4FF0000080F311887047AFF3008054
:105A30009800002000BF00BF08480068006880F39D
:105A400008884FF0000080F3148862B661B6BFF397
:105A50004F8FBFF36F8F00DF00BF00BF08ED00E086
:105A600080B586B000AF444B1B68444A934209D1CD
:105A70004FF0500383F31188BFF36F8FBFF34F8F45
:105A80003B61FEE73C4B1B683D4A934209D14FF016
:105A9000500383F31188BFF36F8FBFF34F8FFB6009
:105AA000FEE7384B7B617B691B78DBB27B607B69EF
:105AB000FF221A707B691B78DBB2FB70FB78DBB2CC
:105AC00003F05003DAB2304B1A70304B07221A60E1
:105AD00009E02E4B1B68013B2C4A1360FB78DBB2BC
