:020000040800F2
:1000000000000220314C0008ED4A0008F14A0008C7
:10001000F54A0008F94A0008FD4A000800000000FF
:10002000000000000000000000000000A13A0008ED
:10003000014B000800000000313B0008953B000820
:10004000814C0008814C0008814C0008814C00085C
:10005000814C0008814C0008814C0008054B0008C9
:10006000814C0008814C0008814C0008814C00083C
:10007000814C0008814C0008814C0008814C00082C
:10008000814C0008814C0008814C0008814C00081C
:10009000814C0008814C0008814C0008814C00080C
:1000A000814C0008814C0008814C0008814C0008FC
:1000B000814C00080D4B0008814C0008814C000861
:1000C000814C0008814C0008814C0008814C0008DC
:1000D000814C0008814C0008194B0008814C000835
:1000E000814C0008814C0008814C0008814C0008BC
:1000F000814C0008814C0008814C0008814C0008AC
:10010000814C0008814C0008814C0008814C00089B
:10011000814C0008814C0008814C0008814C00088B
:10012000814C0008814C0008814C0008814C00087B
:10013000814C00080000000000000000814C000815
:10014000814C0008814C0008814C0008814C00085B
:10015000814C0008814C0008814C0008814C00084B
:10016000814C0008814C0008814C0008814C00083B
:10017000814C0008814C00080000000000000000D5
:08018000814C0008814C0008CD
:1001900010B5054C237833B9044B13B10448AFF3C1
:1001A00000800123237010BD7400002000000000B7
:1001B000F854000808B5034B1BB103490348AFF3DB
:1001C000008008BD0000000078000020F8540008FE
:1001D00053B94AB9002908BF00281CBF4FF0FF31AE
:1001E0004FF0FF3000F072B9ADF1080C6DE904CEAC
:1001F00000F006F8DDF804E0DDE9022304B0704702
:100200002DE9F047089E04468846002B4BD18A42D0
:10021000154667D9B2FA82F24AB1C2F1200701FA53
:1002200002F320FA07F7954047EA030894404FEAA3
:10023000154E230CB8FBFEF71FFA85FC0EFB178842
:1002400043EA084307FB0CF1994209D9EB1807F17F
:10025000FF3080F01B81994240F21881023F2B440D
:100260005B1AA4B2B3FBFEF00EFB103344EA034466
:1002700000FB0CFCA44509D92C1900F1FF3380F0D8
:100280000781A44540F2048102382C4440EA07402B
:10029000A4EB0C0400271EB1D4400023C6E90043A0
:1002A0003946BDE8F0878B4209D9002E00F0EB807B
:1002B0000027C6E9000138463946BDE8F087B3FAA1
:1002C00083F7002F47D18B4202D3824200F2FA809B
:1002D000841A61EB030301209846002EE0D0C6E9A2
:1002E0000048DDE702B9FFDEB2FA82F2002A40F0F0
:1002F0008F80491B4FEA154E1FFA85F80127B1FB85
:10030000FEFC230C0EFB1C1143EA014308FB0CF11D
:10031000994207D9EB180CF1FF3002D2994200F252
:10032000CD808446591AA3B2B1FBFEF00EFB101427
:1003300043EA044408FB00F8A04507D92C1900F152
:10034000FF3302D2A04500F2B6801846A4EB0804A1
:1003500040EA0C409FE7C7F1200CBB4022FA0CFE9C
:100360004EEA030E01FA07F420FA0CF521FA0CF319
:100370004FEA1E482543B3FBF8F92C0C08FB193350
:100380001FFA8EFA44EA034309FB0AF49C4202FA7C
:1003900007F200FA07F10BD91EEB030309F1FF3056
:1003A00080F087809C4240F28480A9F10209734466
:1003B0001B1BADB2B3FBF8F008FB103345EA034456
:1003C00000FB0AFAA24508D91EEB040400F1FF3332
:1003D0006BD2A24569D90238744440EA0940A0FBB7
:1003E0000289A4EB0A044C45C2464B4654D351D073
:1003F000002E69D0B1EB0A0564EB030404FA0CFC8F
:10040000FD40FC404CEA0505C6E90054002747E7DB
:10041000C2F1200320FA03F7954001FA02F021FA15
:1004200003F34FEA154E3843010CB3FBFEF71FFAF6
:1004300085F80EFB173341EA034107FB08F38B42B3
:1004400004FA02F407D9691807F1FF3C2FD28B4256
:100450002DD9023F2944CB1A81B2B3FBFEF00EFB2B
:10046000103341EA034100FB08F38B4207D96918B6
:1004700000F1FF3C17D28B4215D902382944C91A22
:1004800040EA07473BE73746304609E70746E7E6D5
:100490001846FBE64145ABD2B8EB020A69EB0E0207
:1004A00001381346A4E76046E9E7184695E7674632
:1004B000D1E781467CE702382C4447E7ACF1020CD7
:1004C0002B442FE7384608E73746E9E6704700BF78
:1004D00010F8012B11F8013B012A28BF9A42F7D0EE
:1004E000D01A7047034613F8012B002AFBD1181AC3
:1004F000013870470000000000000000000000000C
:1005000001F0FF01102A2BDB10F0070F08D010F8C4
:10051000013B013A8B422DD010F0070F42B3F6D1C8
:10052000F0B441EA012141EA014122F007047FF0E1
:1005300000070023F0E80256083C85EA010586EA38
:10054000010685FA47F5A3FA87F586FA47F6A5FA74
:1005500087F68EB9EED1F0BC01F0FF0102F0070280
:1005600032B110F8013B013A83EA010313B1F8D12B
:100570000020704701387047002D06BF354603380C
:10058000073815F0010F07D1013015F4807F02BF45
:10059000013015F4C03F0130F0BC0138704700BF96
:1005A0000C480D4BC1680D4A30B441F080710C4CC1
:1005B000C16021680B4D0C4841F0010121601B68AE
:1005C000A2FB0312A5FB031392099B0CC0E90023B5
:1005D00030BC7047F0ED00E00C000020D34D6210FD
:1005E000001000E083DE1B4390000020054B064A0C
:1005F0001B68516803FB00F053685B1A8342FBD30E
:10060000704700BF90000020001000E0054B064A34
:100610005B68516803FB00F053685B1A8342FBD3AD
:10062000704700BF90000020001000E008B50B4BA1
:100630001A6842F400721A601A6842F480621A6002
:100640001A6842F480721A60032000F067FA0020F2
:1006500004F00CFA04F0EAF9002008BD003C024066
:10066000034A044B11681B780B441360704700BFAA
:100670008C40002000000020014B1868704700BF2C
:100680008C400020002800F09180F8B5056C0446ED
:10069000002D00F08180236CDB0604D500230120AF
:1006A00084F83C30F8BD226C4D4923684D4D22F44E
:1006B000885222F0020242F0020222644A6822F4C6
:1006C00040324A604A68606802434A60586821695B
:1006D000A768E66820F4807058605A6842EA0122F0
:1006E0005A60586820F0407058605968A06A3943D1
:1006F0005960996821F4006199609A68A84242EAB9
:1007000006029A6054D09968E56A21F07061996098
:100710009A6810439860996821F0405199609A68EE
:100720002A439A609968257E94F8200021F00201FE
:1007300099609A6842EA45029A605A68002840D156
:1007400022F400625A60DA6AE56994F830706669EA
:1007500022F47002DA62D86A013D40EA0550D8629C
:10076000986820F400709860996841EA4721996080
:10077000996821F4806199609A68002042EA862293
:100780009A606064236C23F0030343F00103236445
:10079000002384F83C30F8BD03F0C2FB6564236C91
:1007A00084F83C50DB063FF579AF7CE701207047C9
:1007B0009A6822F070629A609A6822F040529A60B9
:1007C000B0E742F40062616A5A605A6822F46042FB
:1007D0005A605A68013942EA41325A60B3E700BFB1
:1007E000002301400100000F10B490F83C3083B0AA
:1007F0000022012B01925CD002689368012180F8ED
:100800003C10D90714D4324B324C1B689168A4FBBE
:1008100003439B0C03EB430341F0010191600193FF
:10082000019B2BB1019B013B0193019B002BF9D153
:100830009368DB072CD5036C23F4E06323F00103FA
:1008400043F48073036453685C0505D5036C23F49B
:10085000405343F480530364036C13F480531CBF70
:10086000436C23F0060343646FF0220100241A4B0B
:1008700080F83C4011605968C9060ED117498A4278
:100880000ED001F580718A421ED015498A4215D0DA
:10089000002003B05DF8044B7047104B9A42F7D12B
:1008A000906810F04050F3D1936843F08043936018
:1008B000EFE7022003B05DF8044B70475B6803F07C
:1008C0001F030F2BECD9E3E75B68DB06E8D0DFE71B
:1008D0000C00002083DE1B43002301400020014068
:1008E0000022014090F83C30012B16D003689A6832
:1008F000012122F0010280F83C109A609B68DB071E
:1009000006D4036C23F4885323F001030B430364E0
:10091000002380F83C30184670470220704700BF23
:1009200003689A68520502D59B68DA0540D470B511
:100930000D460446FFF7A0FE06466B1C226825D133
:1009400013689807FCD56FF012031360236C43F40F
:1009500000732364936813F0405F15D1237E9BB925
:10096000D36A13F4700F02D093685B050CD4236C28
:1009700023F480732364206C10F4805004D1236C22
:1009800043F00103236470BD002070BD1368990714
:10099000D9D425B1FFF770FE801BA842CDD9236CB6
:1009A000002243F00403236484F83C200320EAE798
:1009B000036C002243F02003036480F83C200120F4
:1009C000704700BF0368D86C704700BFF0B490F860
:1009D0003C3082B00022012B019200F095800D681E
:1009E0008A6803680124092DAFB280F83C4029D8F9
:1009F0001C6905EB45064FF0070C0CFA06FC24EACF
:100A00000C041C611C6902FA06F626431E614E683E
:100A1000062E06EB86022AD8596B053A1F2494400D
:100A200021EA04015963596B07FA02F20A435A6337
:100A3000374A93422DD0002380F83C30184602B04C
:100A4000F0BC704707EB4706DC681E3E4FF0070C12
:100A50000CFA06FC24EA0C04DC60DC6802FA06F6F8
:100A60002643DE604E68062E06EB8602D4D90C2E95
:100A700035D8A2F123041F211A6BA14022EA0102FA
:100A80001A63196B07FA04F20A431A63204A934265
:100A9000D1D1122D31D0A5F11003012BCBD81D4A95
:100AA0005368102D43F400035360C4D11A4B02F174
:100AB000467202F52E321B6802F28332A2FB032338
:100AC0009B0C03EB83035B000193019B002BB2D0D3
:100AD000019B013B0193019B002BF9D1ABE7A2F1F4
:100AE00041011F24DA6A8C4022EA0402DA62DC6ADD
:100AF00007FA01F22243DA629AE7D2F8043343F4A8
:100B00008003C2F8043396E7022002B0F0BC7047BD
:100B100000200140002301400C000020074AD36858
:100B20004FF6FF010B40000243F0BF6300F4E060AA
:100B300043F400330343D360704700BF00ED00E08F
:100B4000184BDB68C3F3022330B4C3F10705042D4F
:100B500003F1040428BF0425062C19D9033B4FF0E8
:100B6000FF349C4022EA04044FF0FF32AA4021EAFD
:100B7000020101FA03F2224312010028D2B20ADB79
:100B800000F1604000F5614080F8002330BC704700
:100B900000242346E8E7044B00F00F0003441A76D4
:100BA00030BC704700ED00E0FCEC00E0002807DB03
:100BB00000F01F0101234009024A8B4042F8203017
:100BC000704700BF00E100E000280DDB430920333F
:100BD0000122064900F01F0002FA00F041F823004C
:100BE000BFF34F8FBFF36F8F704700BF00E100E08E
:100BF00090F83530022B03D08023436501207047E5
:100C00000268052380F83530136823F00103136070
:100C1000002070472DE9F04FD1F80080DFF8F4E1B3
:100C200083B0002403E00134102C00F08C800123F9
:100C3000A34008EA03029342F5D1D1E9016526F009
:100C400010094FEA440C032309F1FF3703FA0CF3B0
:100C5000012F6FEA030305FA0CF577D9C7681F4027
:100C60003D43C560076806F003051F4005FA0CF315
:100C70003B430360F300D6D55F4D002301936B6CBB
:100C800043F480436B646D6C24F0030305F48045EA
:100C900003F18043019503F59C3304F003054FEA0B
:100CA0008509564D019FD3F808C00F2707FA09F7A9
:100CB000A8422CEA07071FD005F58065A84276D028
:100CC0004F4DA84279D04F4DA8427CD04E4DA842FE
:100CD0007FD04E4DA84200F082804D4DA84200F0DA
:100CE0008480DFF834C160450CBF4FF0070C4FF033
:100CF000080C0CFA09F52F439F60DEF80030D5434D
:100D0000F70354BF2B401343CEF80030DEF8043015
:100D1000B70354BF2B401343CEF80430DEF808303D
:100D2000F70254BF2B401343CEF80830DEF80C30E6
:100D3000B60204F1010454BF2B401343102CCEF82B
:100D40000C307FF474AF03B0BDE8F08F876807EA1A
:100D5000030ACF6807FA0CF747EA0A078760D0F85A
:100D600004A0C6F300172AEA020AA74047EA0A07C6
:100D70004760C7681F403D43B9F1020FC5607FF46B
:100D800071AF4FEAD40900EB890904F00707D9F8DD
:100D90002050BF004FF00F0B0BFA07FB25EA0B0AA0
:100DA0000D69BD4045EA0A05C9F820505AE74FF0E1
:100DB000010C0CFA09F52F439EE74FF0020C0CFAD8
:100DC00009F52F4398E74FF0030C0CFA09F52F4370
:100DD00092E74FF0040C0CFA09F52F438CE74FF023
:100DE000050C0CFA09F52F4386E74FF0060C0CFAB8
:100DF00009F52F4380E700BF0038024000000240A1
:100E000000080240000C02400010024000140240A2
:100E100000180240003C0140001C024002B90904D5
:100E200081617047436931EA030308BF09048161A6
:100E3000704700BF044A5169014200D1704708B5AC
:100E4000506103F06DFA08BD003C0140002800F03D
:100E500032812DE9F0410368DD0782B004462FD5C9
:100E6000AC498A6802F00C02042A00F0EA808A6821
:100E700002F00C02082A00F0E0806368B3F5803FBE
:100E800000F0E980B3F5A02F00F07881A14D2A6829
:100E900022F480322A602A6822F480222A60002B01
:100EA00040F0DE80FFF7E8FB064605E0FFF7E4FBD5
:100EB000801B642800F2F2802B689B03F6D4236821
:100EC0009F0775D41A0715D56369002B00F0A5801C
:100ED000914B904D01221A60FFF7CEFB064605E0CC
:100EE000FFF7CAFB801B022800F2D8806B6F9B07BC
:100EF000F6D5236858073BD5864A136C13F0805308
:100F000040F0DB800193136C43F080531364136C47
:100F100003F080530193019B0126804D2A68D1057F
:100F200040F1AC80A368012B00F0C980052B00F0D4
:100F30002F81784D2A6F22F001022A672A6F22F052
:100F400004022A67002B40F0BF80FFF795FB41F2B7
:100F50008837804606E0FFF78FFBA0EB0800B84219
:100F600000F29C802B6F9807F5D4002E40F0DC80B7
:100F7000A069C8B1674DAA6802F00C02082A00F007
:100F8000D980674A00210228116000F00B81FFF729
:100F900073FB2C46054604E0FFF76EFB401B02285E
:100FA0007CD823689B01F7D4002002B0BDE8F08113
:100FB000584A916811F00C0F24D0916801F00C018F
:100FC00008291CD0E368002B00F09280554B514D4E
:100FD00001221A60FFF750FB064604E0FFF74CFBC6
:100FE000801B02285AD82B689807F7D52B682269EE
:100FF00023F0F80343EAC2032B60236862E75268D8
:101000005602DFD4434A126895074BD5E268012A9D
:1010100048D0012002B0BDE8F0813F4A3D4D136049
:10102000FFF72AFB064604E0FFF726FB801B022899
:1010300034D86B6F9F07F7D45BE74A6850027FF59F
:101040001CAF344A126891037FF53AAF6268002AF8
:101050007FF436AFDDE72F4A136843F48033136023
:10106000FFF70AFB2B4D064604E0FFF705FB801B4C
:10107000642813D82B689A03F7D520E72A6842F42E
:1010800080722A60FFF7F8FA07462B68DA053FF509
:1010900049AFFFF7F1FAC01B0228F6D9032002B0CE
:1010A000BDE8F0811B4920690A6822F0F80242EA93
:1010B000C0020A6006E70120704700262DE7154AA6
:1010C000136F43F001031367FFF7D6FA114D804603
:1010D00041F2883705E0FFF7CFFAA0EB0800B842ED
:1010E000DCD82B6F9B07F6D5002E3FF441AF1BE0F9
:1010F0000C4A084D1360FFF7BFFA064604E0FFF7FD
:10110000BBFA801B0228C9D82B689907F7D423683B
:10111000D8E600BF00380240800E47420070004011
:101120006000474200004742354A136C23F0805369
:1011300013641DE701283FF46DAF6B68E26903F4A7
:10114000800191427FF465AF226A03F03F01914232
:101150007FF45FAF47F6C072616A1A408A427FF43B
:1011600058AFA26A03F4403191427FF452AFE06A73
:1011700003F07063181A18BF01204BE7204B1A6860
:1011800042F480221A601A6842F480321A6067E7DB
:101190001B4B1A6F42F004021A671A6F42F00102E9
:1011A0001A6791E7FFF768FA064605E0FFF764FA69
:1011B000801B02283FF672AF2B689901F6D4D4E960
:1011C0000736D4E90902E16A0D4C334343EA801340
:1011D000520843EA0163013A0A4943EA0243012201
:1011E0006B600A60FFF748FA054605E0FFF744FA2E
:1011F000401B02283FF652AF23689A01F6D5D3E68A
:101200000038024060004742174908B58B6803F078
:101210000C03042B1BD0082B17D14A684B6813F41E
:10122000800302F03F0214D149681048C1F38811CD
:10123000A1FB0001FEF7CCFF0B4B5B68C3F301433E
:1012400001335B00B0FBF3F008BD084808BD084857
:1012500008BD4B680648C3F38813A3FB00010023B5
:10126000FEF7B6FFE8E700BF003802400024F400B4
:1012700000127A0060B1494A136803F00F038B42F1
:1012800008D2CBB21370136803F00F038B4201D066
:101290000120704703682DE9F0419D0714D55C07D4
:1012A00004D53F4CA26842F4E052A2601A0704D56C
:1012B0003B4CA26842F46042A260394C8568A26847
:1012C00022F0F0022A43A260DF0704460D4622D531
:1012D0004268012A57D0931E012B314B1B6859D904
:1012E000990725D52E4EB36823F003031343B3604B
:1012F000FFF7C2F941F28837804605E0FFF7BCF9F5
:10130000A0EB0800B84243D8B368626803F00C034E
:10131000B3EB820FF2D1214A136803F00F03AB4203
:1013200009D9EBB21370136803F00F03AB4202D07C
:101330000120BDE8F08123685A0706D51849E06806
:101340008A6822F4E05202438A601B0712D4FFF736
:101350005BFF134B134C9B681349144AC3F30313ED
:10136000E35C20FA03F30868136003F07FFB0020BE
:10137000BDE8F0810A4A2169936823F4604343EA97
:10138000C1039360E3E7064B1B689E03AAD4CFE733
:101390000320EDE79801A5D4CAE700BF003C024056
:1013A00000380240F4560008040000200C00002021
:1013B000044B054A9B680549C3F382230868D35C44
:1013C000D840704700380240045700080C00002045
:1013D000044B054A9B680549C3F342330868D35C54
:1013E000D840704700380240045700080C00002025
:1013F0000E4B0F2202609A6802F0030242609A6864
:1014000002F0F00282609A6802F4E052C2609B68C7
:10141000DB0810B403F4E053054C036123685DF866
:10142000044B03F00F030B60704700BF003802400D
:10143000003C0240B0B138B54379044603F0FF02E6
:1014400063B12168022363710B680022012543F018
:1014500004030B6010466571A26038BD027103F091
:1014600073FAEEE70120704700283BD090F8512036
:10147000002370B502F0FF010446836262B3184690
:10148000D4E90135D4E903212B4313436269E569AB
:10149000266A0B431343A26921682B43022584F873
:1014A0005150334302F400750E682B43120C656AE9
:1014B00002F0040203432A4326F040060E600B604C
:1014C0004A60CB69002223F400630125CB611046FA
:1014D000626584F8515070BD80F8501003F070FAC6
:1014E000A06ACDE7012070472DE9F04190F8504007
:1014F000012C82B000F088801D46012380F8503016
:10150000044616468846FFF7B7F8074694F8510098
:10151000C0B2012809D002200122002384F8512002
:1015200084F8503002B0BDE8F081B8F1000FF3D07C
:10153000002EF1D0A268C4F8308000230321B2F558
:10154000004F84F85110A3636365A387C4E9103387
:10155000E686A686E387236803D11A6842F48042B0
:101560001A601A68520653D5E2686168B2F5006FD6
:101570007ED0002968D198F800201A73E38E226B80
:10158000013B9BB20132E38622636B1C45D1E38EA3
:101590009BB28BB123689A6896075FD5226B12784D
:1015A0001A73E38E226B013B9BB2E386E38E01321A
:1015B0009BB22263002BEDD16D4B6E491B686268B4
:1015C000A1FB03135B0D4FF47A7101FB03F3B2F53A
:1015D000827F019307D13AE0019B2268013B01938E
:1015E00093681B0602D5019B002BF5D1A36833B984
:1015F00022680093D368009393680093009B606D0A
:10160000003018BF012087E7022002B0BDE8F0815A
:101610001A6842F040021A60A6E7E38E9BB2002BE4
:10162000CAD023689A6892071BD5226B12781A7366
:10163000E38E226B013B9BB2E386E38E01329BB2C9
:101640002263002BEDD1B7E7012E9ED193E7681CF2
:10165000226855D193681906FCD4C7E7FFF70CF848
:1016600095E7FFF709F8C01BA842D6D3032053E73C
:1016700000293BD0012E39D0681C20D1E38E9BB2CB
:10168000002B99D023689A68910710D5226B32F805
:10169000021BD960E38E2263013B9BB2E386E38E9B
:1016A0009BB2002B88D023689A689107EED4FEF78E
:1016B000E3FFE3E7FEF7E0FFC01BA842D6D2E38ECC
:1016C0009BB2002B3FF478AF23689A689607F1D558
:1016D000226B32F8021BD960E38E2263013B9BB27E
:1016E000E386E38E9BB2002BEED165E7414631F8ED
:1016F000022BDA60E38E2163013B9BB2E386BBE7FA
:1017000093681A067FF572AFFEF7B6FFC01B8542DD
:101710009DD8D4E900205168A36821F0E001B0F51C
:10172000827F516018D0A16AB1F5005F07D11168BE
:1017300021F400511160116841F40051116001223F
:1017400084F85120626D002042F020022021626561
:1017500084F8500061654AE7B3F5004F02D0B3F555
:10176000806FE0D1116821F040011160DBE700BF1C
:101770000C000020819F5E162DE9F0414568B5F50B
:10178000827F044682B00F4690F8500090461E4675
:1017900018D0012800F0BD80012384F85030FEF7F6
:1017A0006BFF054694F85100C0B2012800F0B580E7
:1017B00002200122002384F8512084F8503002B026
:1017C000BDE8F081A368002BE3D10423012884F84D
:1017D000513000F09E80012384F85030FEF74CFF1A
:1017E00094F851306268DBB2012B054607D0B2F5A0
:1017F000827FDDD1A1680029DAD1042BD8D1002F56
:1018000000F03581B8F1000F00F0318194F85130CB
:101810002168042B1CBF052384F851300023636525
:10182000A4F83E80A4F836800868A7634006A4F8B0
:101830003C802763A4F83480C4E9103303D40B68D8
:1018400043F040030B60E368B3F5006F00F0548190
:10185000002A00F04781B8F1010F00F04381701CAD
:1018600040F0B281012526E023689A6891070FD5E0
:10187000E28E92B262B15DB1226B12781A73E28E7F
:10188000216B2368013A92B20131E286216300257F
:101890009A68D2070DD5E28F92B252B1A26BDB6883
:1018A0001370E38FA26B013B9BB20132E387A2630B
:1018B0000125FEF7E1FEE38E9BB2002BD4D1E38F2E
:1018C0009BB2002BD0D1914B914A1B686168A2FB5F
:1018D00003235B0D4FF47A7202FB03F3B1F5827FB1
:1018E000019307D1A4E1019B2268013B0193936816
:1018F000190602D5019B002BF5D1A068002840F005
:10190000548123680090DA6800929B680093009BE2
:101910004FE7022002B0BDE8F081002F3FF449AF4D
:10192000B8F1000F3FF445AFA268A763042384F821
:101930005130B2F5004F4FF0000363652363A38677
:10194000C4E91033A4F83E80A4F83C80E386236801
:1019500000F084801A68520603D41A6842F04002EC
:101960001A60E268B2B9711C0BD069E0A26B1B7BF4
:101970001370E38FA26B013B9BB20132E387A2633A
:101980002368E28F92B2D2B19A68D207EED4FEF702
:1019900073FEF5E7771C24D1E28F92B27AB19A6890
:1019A000D00760D5A16BDA6821F8022BE28FA16322
:1019B000013A92B2E287E28F92B2002AEFD16268D6
:1019C000B2F5827F55D09A68D207FCD4606D0030A2
:1019D00018BF0120EDE6FEF74FFE401BB0423BD2A0
:1019E0002368E28F92B27AB19A68D007F3D5A16BDF
:1019F000DA6821F8022BE28FA163013A92B2E28702
:101A0000E28F92B2002AEFD16268B2F5827F06D1EE
:101A10002FE0FEF731FE401B864223683FD9711C40
:101A2000D1D09B68DB07F4D4D0E7A26B1B7B13708B
:101A3000E38FA26B013B9BB20132E387A263236871
:101A4000E28F92B2002ADFD09A68D707EDD4FEF772
:101A500013FE401BB042F2D30320AAE61A6822F418
:101A600080421A6076E7FEF707FE236894E70120BC
:101A70009FE6A268B2F5004F2FD0B2F5806F76D006
:101A8000711C03D19A681206FCD49FE79B681B0661
:101A90009CD5FEF7F1FD401B86422368F0D86168B3
:101AA0005A68B1F5827F22F0E0025A607FD0A26AC4
:101AB000B2F5005F07D11A6822F400521A601A6862
:101AC00042F400521A60012384F85130636D43F0F0
:101AD000200363652023636578E71A6822F04002DB
:101AE0001A60CDE73B780B73E38E226B013B9BB210
:101AF0000132E3862263B2E6002A4DD0B8F1010F2D
:101B00004AD0771C40F0B580012527E00C0000206A
:101B1000819F5E1623689A6896070DD5E28E92B271
:101B200052B14DB1216B31F8022BDA60E28E2163A4
:101B3000013A92B2E28600259A68D0070CD5E28F6E
:101B400092B24AB1A26BDB6822F8023BE38FA26338
:101B5000013B9BB2E3870125FEF78EFDE38E9BB22E
:101B6000002BD7D1E38F9BB2002BD3D1ABE61A6801
:101B700022F040021A60771C03D19A68D507FCD482
:101B800024E79B68D8077FF521AFFEF775FD401B62
:101B900086422368EFD882E737F8023BCB60E38EBA
:101BA0002763013B9BB2E386ABE7002001E6A26816
:101BB000B2F5004F03D0B2F5806F7FF478AF1A68AA
:101BC00022F040021A6072E70127E38E9BB21BB934
:101BD000E38F9BB2002B30D023689A6891070FD512
:101BE000E28E92B262B15FB1226B12781A73E28E0A
:101BF000216B2368013A92B20131E286216300270A
:101C00009A68D2070DD5E28F92B252B1A26BDB680F
:101C10001370E38FA26B013B9BB20132E387A26397
:101C20000127FEF729FD401B86427FF615AFCCE762
:101C3000226893681D06FCD45FE63B4B61681B6815
:101C40003A4AB3FBF2F24FF47A7303FB02F3B1F5B5
:101C5000827F01937FF44EAE04E0FEF70DFD401B42
:101C6000864236D9771C2268E3D093681806F4D4EC
:101C700043E60127E38E9BB21BB9E38F9BB2002B97
:101C8000DBD023689A6891070DD5E28E92B252B1EB
:101C90004FB1216B31F8022BDA60E28E2163013AF9
:101CA00092B2E28600279A68D2070CD5E28F92B2F0
:101CB0004AB1A26BDB6822F8023BE38FA263013BCF
:101CC0009BB2E3870127FEF7D7FC401B8642D1D8A1
:101CD000C2E6D4E900315A68B1F5827F22F0E00211
:101CE0005A6014D0A26AB2F5005F07D11A6822F4D4
:101CF00000521A601A6842F400521A60012084F8F7
:101D00005100636D202213436365626551E5A2684B
:101D1000B2F5004F02D0B2F5806FE3D11A6822F01D
:101D200040021A60DEE700BF0C00002000366E01A2
:101D30002DE9F04190F85040012C82B000F0AA80CB
:101D40001E46012380F85030044617460D46FEF724
:101D500093FC804694F851006368C0B2012811D00A
:101D6000B3F5827F09D002200122002384F851209C
:101D700084F8503002B0BDE8F081A268002AF2D1A8
:101D80000428F0D1002D00F08980002F00F086801B
:101D9000002E00F0838094F851202068A763042A65
:101DA0001CBF052284F8512000226265E687E68682
:101DB0000168A687C4E910224A062563A68603D4D3
:101DC000026842F040020260E268B2F5006F00F083
:101DD0009D80002B00F00281012E00F0FF80089B07
:101DE00001334FF0010527D05AE023689A68920723
:101DF0000FD5E28E92B262B15DB1226B12781A7386
:101E0000E28E216B2368013A92B20131E2862163AE
:101E100000259A68D7070DD5E28F92B252B1A26B16
:101E2000DB681370E38FA26B013B9BB20132E38747
:101E3000A2630125FEF720FCE38E9BB2002BD4D1D8
:101E4000E38F9BB2002BD0D1904B914A1B68616805
:101E5000A2FB03235B0D4FF47A7202FB03F3B1F58F
:101E6000827F019307D1CEE0019B2268013B019361
:101E700093681B0602D5019B002BF5D1A0680028B2
:101E800040F0BF8023680090DA6800929B6800935E
:101E9000009B69E7022002B0BDE8F081012063E702
:101EA000E38E9BB223B9E38F9BB2002B00F0B0808E
:101EB00023689A6896070FD5E28E92B262B15DB13F
:101EC000226B12781A73E28E216B2368013A92B268
:101ED0000131E286216300259A68D0070DD5E28F93
:101EE00092B252B1A26BDB681370E38FA26B013B1D
:101EF0009BB20132E387A2630125FEF7BDFB089B7D
:101F0000A0EB08008342CBD803202DE7002B6FD035
:101F1000012E6DD0089B01334FF0010524D02CE039
:101F200023689A6897070DD5E28E92B252B14DB1EF
:101F3000216B31F8022BDA60E28E2163013A92B212
:101F4000E28600259A68D6070CD5E28F92B24AB194
:101F5000A26BDB6822F8023BE38FA263013B9BB2DA
:101F6000E3870125FEF788FBE38E9BB2002BD7D1D8
:101F7000E38F9BB2002BD3D166E7E38E9BB21BB9F4
:101F8000E38F9BB2002B43D023689A6890070DD54E
:101F9000E28E92B252B14DB1216B31F8022BDA6070
:101FA000E28E2163013A92B2E28600259A68D10757
:101FB0000CD5E28F92B24AB1A26BDB6822F8023BE9
:101FC000E38FA263013B9BB2E3870125FEF754FB3D
:101FD000089BA0EB08008342CFD895E72B780373CA
:101FE000E38E226B013B9BB20132E3862263F6E66D
:101FF00035F8023BC360E38E2563013B9BB2E38669
:1020000088E70020B0E6226893681906FCD435E71B
:102010001E4B1F4A1B686168A2FB03235B0D4FF434
:102020007A7202FB03F3B1F5827F01937FF423AF51
:10203000089B06E0FEF720FB089BA0EB080083420C
:1020400006D901332268DFD093681A06F2D415E767
:10205000D4E900315A68B1F5827F22F0E0025A607B
:1020600018D0A26AB2F5005F07D11A6822F40052B4
:102070001A601A6842F400521A60012084F8510074
:10208000636D20221343636562656DE60C000020DA
:10209000819F5E16A268B2F5004F02D0B2F5806F44
:1020A000DFD11A6822F040021A60DAE7704700BFF9
:1020B00000285CD0F8B590F83D30044603F0FF02EC
:1020C000BBB322683A4EA569E0686168022384F8D0
:1020D0003D30B24213684CD0B2F1804F58D0A6F5D3
:1020E0007C46B2422AD006F58066B24226D006F57A
:1020F0008066B24222D006F57846B2421ED006F57E
:102100007056B24213D006F58066B2420FD006F583
:102110008066B2420BD0A6F59836B24207D006F5DB
:102120008066B24203D006F58066B24238D1266995
:1021300033E080F83C20FFF7B9FFC2E7A6681D4FE7
:1021400023F070033343266923F44073334323F0B1
:1021500080032B43BA421360D062916201D163695C
:10216000136301235361002084F83D30F8BD012042
:102170007047A768266923F070033B4323F440733C
:10218000334323F080032B431360D0629162E6E770
:10219000A768266923F070033B4323F4407333435D
:1021A00023F080032B431360D0629162D9E700BF14
:1021B00000000140000401400368DA6842F00102B7
:1021C000DA609A6802F00702062A03D01A6842F021
:1021D00001021A6000207047704700BF704700BFBF
:1021E000704700BF704700BF03681A69910710B5B8
:1021F000044602D5DA6892075FD41A69500702D5FF
:10220000DA68510746D41A69120702D5DA6810074E
:102210002ED41A69D20602D5DA68D00618D41A6903
:10222000D10702D5DA68D2075DD41A69100602D543
:10223000DA6811065FD41A69520602D5DA685006C8
:1022400061D41A69910602D5DA68920643D410BDAA
:102250006FF010021A61DB69082213F4407F2277C5
:10226000204664D0FFF7BAFF002223682277D6E722
:102270006FF008021A61DB69042299072277204671
:1022800052D1FFF7A9FF2046FFF7AAFF00222368DB
:102290002277BEE76FF004021A619B69022213F4F1
:1022A000407F227720463CD1FFF796FF2046FFF77C
:1022B00097FF002223682277A5E76FF002021A61D8
:1022C0009B6901229B07027725D0FFF787FF002239
:1022D0002368227791E76FF0200220461A61BDE85B
:1022E000104000F02BB86FF001021A61204602F096
:1022F0000FFB236899E76FF080021A61204600F017
:102300001FF8236897E76FF040021A612046FFF735
:1023100069FF236895E7FFF75FFF2046FFF760FF3F
:10232000D5E7FFF75BFFC4E7FFF758FFAEE7FFF71E
:1023300053FF2046FFF754FF96E700BF704700BFEA
:10234000704700BF002800F0938090F8393070B5D6
:1023500003F0FF020446002B00F085802368266905
:10236000242284F83920D86820F40050D4E90225CA
:10237000D8601969E06921F4405129431961D9688D
:102380006569324321F416412A4321F00C010243CE
:102390000A43DA605A69A16922F440720A43B0F52F
:1023A000004F5A61364A34D0934263D002F58062BE
:1023B00093425FD0FEF7FCFF6368324D1922A0FB09
:1023C00002019A009B0FFDF703FFA5FB00214909BD
:1023D000642202FB1102120132322368A5FB0202C1
:1023E000090101EB52129A601A6922F490421A61B3
:1023F0005A6922F02A025A61DA680025202142F443
:102400000052DA602846E56384F8391084F83A10FF
:1024100070BD934231D002F5806293422DD0FEF719
:10242000C7FF6268002692184FF0190146EB0603B9
:10243000A0FB0101FDF7CCFE124E2368A6FB002194
:102440004D09642202FB1502D2003232A6FB0212B1
:10245000520902F00701520001EB051102F4F87273
:102460000A449A60C0E780F8382002F0A3FB75E7C1
:1024700001207047FEF7ACFF9EE7FEF7A9FFD0E70B
:10248000001001401F85EB512DE9F0410E4690F8F8
:102490003910202982B032D1002E34D00192002A86
:1024A00031D01F4690F83830012B044627D04FF02A
:1024B000000801212123C0F83C8080F8381080F802
:1024C0003930FEF7D9F8019AA284E284226884F8B0
:1024D00038800546E38C9BB2002B3BD0E08CA16892
:1024E000013880B2B1F5805FE0841BD0781C3BD10D
:1024F00010680106FCD5337853600136EAE7022004
:1025000002B0BDE8F081012002B0BDE8F08113689F
:102510001B060CD4002F31D0FEF7AEF8401B8742CB
:1025200022682BD3781CF2D110680106FCD53388C1
:102530002169C3F3080353600029DED10236C9E7DD
:1025400013685B060BD4CFB1FEF796F8401B8742A9
:10255000226813D3781CF3D113685906FCD52023C5
:1025600084F839300020CBE713681B06C3D42FB1A1
:10257000FEF782F8401B87422268B7D2D36823F463
:10258000D073D3605369202123F001030025032079
:10259000536184F8391084F8385084F83A1002B046
:1025A000BDE8F08190F83A30202B20D109B302B376
:1025B00090F83830012B1AD030B400230468C2855B
:1025C0002225C36380F83A50E568828545F480751A
:1025D000816280F83830E560626942F00102626130
:1025E000E26842F020021846E26030BC70470220E8
:1025F00070470120704700BF704700BF10B5846866
:102600000169836A0268B4F5805F20D05C1C52685F
:102610008462C9B91A70C38D013B9BB2C3858BB963
:102620000268D16821F02001D160D16821F4807165
:10263000D1605169202421F00101516180F83A40B4
:1026400001F056FF002010BD02F07F02E2E7526861
:1026500029B9C2F3080223F8022B8362DBE7D2B266
:1026600023F8012B8362D6E7704700BF03681A681E
:1026700070B51607DD685969044646D011F00101AE
:102680004CD0D00705D5EE0503D5E06B40F0010036
:10269000E063500774D529B1E06B960740F0020063
:1026A000E06371D4160703D5A80672D4002970D14F
:1026B000E16B002931D0960601D5A80672D45D6978
:1026C000E16B090702D415F0400578D0DA6822F4EE
:1026D0009072DA605A69202122F001025A6184F86E
:1026E0003A105A69520659D55A69606B22F0400275
:1026F0005A61002852D03A4B0365FEF779FA60B16F
:10270000606BBDE87040036D1847910609D5AE06B1
:1027100007D590F83A30222B4DD070BD15F4907F3C
:10272000AFD116060ED45106F7D56A06F5D5DA688C
:10273000202122F04002DA60204684F83910FFF7A9
:102740005BFF70BD2806EED594F83920212AE4D12C
:10275000A168226AB1F5805F36D0511C21621278DF
:102760005A60E28C013A92B2E284002AD5D1DA684A
:1027700022F08002DA60DA6842F04002DA6070BD6E
:1027800090078FD500298DD0E06B40F00400E06306
:1027900088E7E16B41F00801E16389E72046FFF734
:1027A00063FF70BD94F83A20222A88D12046FFF7B3
:1027B00025FF236883E7BDE87040FFF71FBF204671
:1027C000FFF752FFE56370BD11882069C1F308016E
:1027D000596010B902322262C3E701322262C0E7B7
:1027E000E527000808B5836B0022DA851846DA84ED
:1027F000FFF73AFF08BD00BF2DE9F041D31D82B0BD
:102800006C46DB08A4EBC30300AF9D4604460E46AE
:1028100068460021154602F06AFA00224423E84681
:10282000BA803B80636998470222391D3846236885
:102830009847A3699847E369052098477B79FF2B60
:10284000F0D16369984730462A4641462368984745
:10285000A369984700200837BD46BDE8F08100BF56
:102860002DE9F04102F1080382B003F4FC73551C1A
:1028700000AFADEB030D2A460446884668460021AA
:1028800002F035FA442300226E468DF800303B807A
:10289000BA80636998470222391D384623689847F1
:1028A000A3699847E369052098477B79FF2BF0D10E
:1028B0006369984730462A46414623689847A3698A
:1028C000984700200837BD46BDE8F0812DE9F04F5C
:1028D000E3B0044600AF40F26D12574907F118000B
:1028E00002F0FAF9E3689847E3690A2098472369F8
:1028F000984700224423BA823B82636998470222A8
:1029000007F1140107F1100023689847A36998475D
:10291000E369052098477B7DFF2BEED10025636995
:102920003D743D7598472368012207F1140107F1B2
:1029300010009847A36998474423BD823B8263698E
:102940009847022207F1140107F110002368984705
:10295000A3699847E369052098477B7DFF2BEED15B
:102960003D7E002D61D007F118064FF000094FF0B1
:10297000440805F1070B2BF0070BC7F804D0ADEBAB
:102980000B0D68462A460021013602F0B0F9684670
:1029900031462A4602F0A0F9EA46C7F80CD0ADEB62
:1029A0000B0D68462A46002102F0A1F91FFA85FBAB
:1029B000C7F808D0A7F81490A7F810806369984763
:1029C000022207F1140107F1100023689847A36958
:1029D0009847E369052098477B7DFF2BEED163691B
:1029E00098475A46B968236850469847A36998475C
:1029F000D7F80CD0A7F814902E44A7F8108063697C
:102A00009847022207F1140107F110002368984744
:102A1000A3699847E369052098477B7DFF2BEED19A
:102A20003578D7F804D0002DA3D1002007F5C6775C
:102A3000BD46BDE8F08F00BF1055000830B53E4BD5
:102A400087B006A9D3F8783141F8183D0422002355
:102A50000546CDE90133CDE903338DF81430FFF796
:102A6000CBFE01A9044609222846FFF7F9FE2044BF
:102A700040B218B99DF80530FF2B01D007B030BD2A
:102A80009DF808109DF80A209DF80C30CC0985F8B7
:102A90002840C1F3801485F82940C1F3401485F81B
:102AA0002A40C1F3001485F82B40C1F3C00485F817
:102AB0002C40C1F3400401F0010185F82D4085F858
:102AC0002E10C2F38014C2F3401185F82F4085F810
:102AD0003010C2F30014C2F3C00185F8314085F80C
:102AE0003210C2F38004C2F3400102F0010285F803
:102AF000334085F83410C3F38014C3F3401185F8D4
:102B00003520C3F3001285F8364085F83710C3F33B
:102B1000C004C3F3800185F83820C3F3400203F0FA
:102B2000010385F8394085F83A1085F83B2085F88F
:102B30003C3007B030BD00BF1055000830B587B03D
:102B400006A9202341F8183D042200230546CDE9BB
:102B50000133CDE903338DF81430FFF74DFE01A9A1
:102B6000044609222846FFF77BFE204440B207B006
:102B700030BD00BF2DE9F04186B006AE202346F8F7
:102B8000183D0024314604220746CDE90144CDE931
:102B900003448DF81440FFF72FFE01A905460922D2
:102BA0003846FFF75DFE2323804631463846022231
:102BB000CDE90144CDE903448DF81440ADF800306F
:102BC000FFF71AFE01A9044605223846FFF748FE22
:102BD00045442544284440B206B0BDE8F08100BF1A
:102BE00030B5184B87B006A9B3F87C3121F8183DF1
:102BF000022200230546CDE90133CDE903338DF8E8
:102C00001430FFF7F9FD01A9044605222846FFF715
:102C100027FE204440B218B99DF80530FF2B07D09D
:102C2000FF231A4685F83E3085F83D2007B030BDB9
:102C30009DF808209DF8093085F83E3085F83D2044
:102C400007B030BD1055000870B584B0002A9DF85B
:102C500020408DF80C100CBF00220822002B0CBF66
:102C6000002608260D0A002C8DF80D204FF00802D2
:102C70000CBF0024082432238DF80B500DEB020109
:102C800000258DF80E608DF80F40ADF808308DF8F6
:102C90000A500446FFF7B0FD44230646ADF8045041
:102CA000ADF8003063699847022201A9684623689D
:102CB0009847A3699847E369052098479DF8053030
:102CC000FF2BEFD1304604B070BD00BF2DE9F047B7
:102CD00002F1080A4FEADA0A82B04FEACA0A02F1A0
:102CE000010800AFADEB0A0D1646044642466846A1
:102CF0008946002101F0FBFF6D46ADEB0A0D42460F
:102D00000021684601F0F3FF772100224423EA46C0
:102D10008DF80010BA803B80636998470222391D04
:102D2000384623689847A3699847E3690520984780
:102D30007B79FF2BF0D1636998471FFA88F25046E0
:102D4000294623689847A36998473246691C484634
:102D500001F0C2FF00200837BD46BDE8F08700BF84
:102D600000B5064B83B002A9B3F8803121F8043DC9
:102D70000222FFF741FD03B05DF804FB1055000887
:102D800000B5064B83B002A9B3F8843121F8043DA5
:102D90000222FFF731FD03B05DF804FB1055000877
:102DA0002DE9F04F8DB000AF07F13008202448F82E
:102DB000184DC7E9022100244146042206469946DF
:102DC000C7E90744C7E9094487F82C40FFF714FD19
:102DD000054607F11C00014609223046FFF740FD79
:102DE0004FF0230C8346414602223046A7F818C014
:102DF000C7E90744C7E9094487F82C40FFF7FCFC02
:102E0000824607F11C00014605223046FFF728FDE7
:102E10005D44AA4415238244414602223046C7E954
:102E20000744C7E9094487F82C403B83FFF7E4FCDB
:102E3000044607F11C00014610223046FFF710FD42
:102E4000044414F0FF045FFA8AFA54D1FB7F9945D9
:102E500051D8FF2B4FD009F1080202F4FC726B46E7
:102E600009F10105ADEB020D68462A4621467B605B
:102E700001F03DFF6846662200F8012BB9684A461A
:102E800001F02AFF2A4669463046FFF7B5FC7B6809
:102E9000FC7707F11C028146114631259D464FF013
:102EA000800CFB687B77052230463D7787F8204011
:102EB00087F81EC0FFF7A0FC07F1300544238144CA
:102EC00025F81C3D5FFA89F93C8373699847022213
:102ED0004146284633689847B3699847F369052007
:102EE00098477B7EFF2BF0D109EB0A0040B23437C4
:102EF000BD46BDE8F08FAAF1320A4FFA8AF03437A6
:102F0000BD46BDE8F08F00BF10B584B004A940F6FF
:102F1000140321F80C3D044600230222CDE90233BC
:102F2000FFF76AFC02A920460822FFF799FC9DF8EA
:102F30000C009DF80D3043EA002004B010BD00BF26
:102F400010B584B004A941F2140321F80C3D0446E5
:102F500000230222CDE90233FFF74EFC02A92046EE
:102F60000822FFF77DFC9DF80E009DF80F3043EA24
:102F7000002004B010BD00BF2DE9F0418AB000AFC1
:102F8000274B39717A683A610D46082207F10C0126
:102F9000FB6004468046FFF72FFC07F11401C6B220
:102FA000022220460024C7E90544C7E9074487F800
:102FB0002440FFF755FC7B7DFF2B18BFA6F12800AE
:102FC0006A4618BFC6B20024164BFB60954607F14F
:102FD0000C01042240467C61C7E906443C6287F844
:102FE0002440FFF709FC1022044607F11401404673
:102FF000FFF736FC7B7DD7F816202044FF2BC0B2AC
:103000001CBF2838C0B23044C3B235EA020258B2FD
:1030100002D008B1013B58B22837BD46BDE8F08167
:10302000112204011222040110B584B004A9012266
:10303000002301F8102D0446CDE90133ADF80C3022
:10304000FFF7DAFB01A920460A22FFF709FC9DF8E9
:103050000730442B08D19DF80830632B14BF6FF064
:103060000900002004B010BD6FF00900FAE700BFAE
:1030700008B500F0E9FA002008BD00BF70B5456949
:103080000269B0F908400B4686B0D0E900166DB170
:10309000806958B1842C14BF03340024CDE9015059
:1030A0000094304600F0ECF906B070BD842C14BFDB
:1030B0000334002405AD92B200943046019500F02F
:1030C00017FA01280CBF0598002006B070BD00BF9C
:1030D00008B5002808BF012000F02CFC002008BD26
:1030E00000F108034FF0FF3100228160026043606D
:1030F000C0E90333704700BF00230361704700BF7E
:103100004368026810B49C688C609C684B60013214
:10311000616099605DF8044B08610260704700BF10
:1031200030B40D686B1C11D000F1080200E01A46A3
:1031300053681C68AC42FAD904684B60013499604A
:103140008A6051600861046030BC7047026953684E
:10315000F2E700BF42688168036910B4916081683A
:103160005C684A601A68844208BF5960013A0021CD
:1031700001611A6018685DF8044B70472DE9F04151
:10318000344C054600F09EFC2368013323606368DD
:1031900093B3D4F80031E86A43B304F10806D4F8D5
:1031A0000811D4F804210123834000EB80000B4375
:1031B000013206EB8000291DC4F80831C4F804214F
:1031C000FFF79EFF00F0A0FCD4F8003163B1626805
:1031D000EB6AD26A9A4207D21F4B4FF080521A60B4
:1031E000BFF34F8FBFF36F8FBDE8F0816368DB6A79
:1031F000834298BF6560D0E765602368012B03D0E8
:10320000E86A04F10806CAE704F10806374604F143
:10321000940838461437FFF763FFB845F9D10F4FCC
:10322000A7F11400FFF75CFF3846FFF759FF07F1DD
:103230001400FFF755FF07F12800FFF751FF07F1D2
:103240003C00FFF74DFFC4F8F880E86AC4F8FC7052
:10325000A5E700BF9800002004ED00E04001002039
:103260002DE9F0470A9C089D266B099F02F18042D8
:10327000013A06EB820680469A4626F007090029A5
:1032800076D00B7884F834300B78002B4DD04B7807
:1032900084F835304B78002B47D08B7884F8363063
:1032A0008B78002B41D0CB7884F83730CB78002B4B
:1032B0003BD00B7984F838300B79002B35D04B7923
:1032C00084F839304B79002B2FD08B7984F83A3041
:1032D0008B7953B3CB7984F83B30CB792BB30B7A12
:1032E00084F83C300B7A03B34B7A84F83D304B7A48
:1032F000DBB18B7A84F83E308B7AB3B1CB7A84F829
:103300003F30CB7A8BB10B7B84F840300B7B63B1C1
:103310004B7B84F841304B7B3BB18B7B84F8423054
:103320008B7B13B1CB7B84F84330002384F843308C
:10333000062D28BF06250026E562C4E91156201D8A
:10334000FFF7DAFEC5F1070504F11800FFF7D4FE18
:10335000E664A561246184F8506064625246414687
:10336000484600F081FB206007B13C60BDE8F08773
:1033700084F83410DCE700BFF8B51C4CD4F80C51CD
:1033800063680646181D0F46FFF7E4FE48B96268F9
:10339000D4F80831D16A01228A4023EA0203C4F832
:1033A0000831731C18D06368AD195D600CD2D4F875
:1033B000F80061680431FFF7B3FED4F81031AB4276
:1033C00088BFC4F81051F8BDD4F8FC006168BDE8AE
:1033D000F8400431FFF7A4BE002FE4D06168044830
:1033E0000431BDE8F840FFF78BBE00BF9800002015
:1033F0007C01002080B5204C204F4FF08056D4F83F
:1034000014315BB300F05EFBD4F8DC30DD68281DBE
:10341000FFF7A0FE2368013B2360D4F81431013B81
:10342000C4F8143100F070FB95F8513063B1012BF2
:103430001DD0022BE3D04FF0500383F31188BFF36C
:103440006F8FBFF34F8FFEE7286B00F0FDFC28461F
:1034500000F0FAFCD4F81431002BD3D1A368012B6F
:10346000CDD93E60BFF34F8FBFF36F8FC7E72846BC
:1034700000F0EAFCC3E700BF9800002004ED00E084
:10348000F0B587B0DDE90C650E9CBDB16CB1542779
:103490000597059F542F1AD04FF0500383F31188DE
:1034A000BFF36F8FBFF34F8FFEE74FF0500383F3EF
:1034B0001188BFF36F8FBFF34F8FFEE74FF05003BC
:1034C00083F31188BFF36F8FBFF34F8FFEE7256340
:1034D000022704AD0294009684F851700195059D71
:1034E000FFF7BEFE2046FFF749FE049807B0F0BD87
:1034F0002DE9F0479600804630460D469946099FD3
:1035000000F026FC002800F09B808246542000F04A
:103510001FFC0446002800F08C80043E5644002323
:1035200026F00706C0F830A080F85130002D7DD07D
:103530002B7880F834302B78002B4DD06B7880F8C6
:1035400035306B78002B47D0AB7880F83630AB78CD
:10355000002B41D0EB7880F83730EB78002B3BD054
:103560002B7980F838302B79002B35D06B7980F8A7
:1035700039306B79002B2FD0AB7980F83A30AB79AA
:1035800053B3EB7980F83B30EB792BB32B7A80F88F
:103590003C302B7A03B36B7A80F83D306B7ADBB129
:1035A000AB7A80F83E30AB7AB3B1EB7A80F83F303B
:1035B000EB7A8BB12B7B80F840302B7B63B16B7B3C
:1035C00080F841306B7B3BB1AB7B80F84230AB7B0A
:1035D00013B1EB7B80F84330002384F84330089D1F
:1035E000062D28BF06254FF0000AE562C4E9115AEE
:1035F000201DFFF781FDC5F1070504F11800FFF755
:103600007BFDC4F84CA0A561246184F850A06462DD
:103610004A464146304600F027FA206007B13C6038
:103620002046FFF7ABFD0120BDE8F08780F834505D
:10363000D5E7504600F008FC4FF0FF30BDE8F087BA
:103640004FF0FF30F0E700BF70B58AB0002407AA42
:1036500006A905A8CDE9054400F0FCFCDDE9055309
:10366000C3B175B1542209920999079A54291AD005
:103670004FF0500383F31188BFF36F8FBFF34F8F69
:10368000FEE74FF0500383F31188BFF36F8FBFF352
:103690004F8FFEE74FF0500383F31188BFF36F8F16
:1036A000BFF34F8FFEE7022008A92B6385F8510076
:1036B0002346CDE90041104810490295099EFFF7C5
:1036C000CFFD2846FFF75AFD089B9BB14FF05003F2
:1036D00083F31188BFF36F8FBFF34F8F084B4FF009
:1036E000FF310122C3F81011C3F80021C3F80C41C7
:1036F00000F084FA0AB070BDF53300080C570008DA
:1037000098000020034AD2F818310133C2F818316A
:10371000704700BF980000202DE9F047464CD4F8D0
:103720001831ABB9D4F80C610136C4F80C61EEB1B4
:10373000D4F81031B34227D900256368DB6A03EB64
:10374000830304EB83039B68022B28BF012505E05C
:10375000D4F824310133C4F824310025D4F81C31C5
:10376000002B0CBF28460120BDE8F087D4F8F830C4
:103770001B68002B42D04FF0500383F31188BFF336
:103780006F8FBFF34F8FFEE7DFF8B0A000254FF03B
:10379000010926E0D4F8F830DB68DF687B6807F1C0
:1037A00004089E42404626D3FFF7D4FCBB6A07F1CB
:1037B00018000BB1FFF7CEFCF86AD4F8082109FA1B
:1037C00000F300EB8000134341460AEB8000C4F88D
:1037D0000831FFF795FC6368FA6ADB6A9A4228BFF2
:1037E0000125D4F8F8301B68002BD3D14FF0FF33FC
:1037F000C4F81031A1E7C4F810319EE7D4F8F830CE
:10380000D4F8FC20C4F8F820C4F8FC30D4F82031F7
:103810000133C4F82031D4F8F8301B6823B94FF0D5
:10382000FF33C4F8103183E7D4F8F830DB68DB6885
:103830005B68C4F810317BE798000020A0000020EE
:103840002DE9F041394CD4F8183143B94FF0500309
:1038500083F31188BFF36F8FBFF34F8FFEE700F044
:1038600031F9D4F81831013BC4F81831D4F81851A3
:1038700055BB236843B3012604F10807D4F8BC30D4
:1038800043B3D4F8C830DD6805F1040805F1180029
:10389000FFF760FC4046FFF75DFCE86AD4F80821BA
:1038A00006FA00F300EB80001343414607EB80006B
:1038B000C4F80831FFF724FC6368EA6ADB6A9A42BD
:1038C000DCD3C4F81C61D9E7002400F01DF92046C0
:1038D000BDE8F0813DB1D4F8F8301B68F3B94FF082
:1038E000FF33C4F81031D4F824514DB10126FFF74D
:1038F00013FF08B1C4F81C61013DF8D1C4F824518C
:10390000D4F81C31002BDFD0094B4FF080521A60E5
:10391000BFF34F8FBFF36F8F0124D6E7D4F8F83091
:10392000DB68DB685B68C4F81031DCE798000020D6
:1039300004ED00E008B5B0B10F4BD3F8181141B158
:103940004FF0500383F31188BFF36F8FBFF34F8F96
:10395000FEE7D3F818210132C3F81821FFF70CFD58
:10396000FFF76EFF38B9054B4FF080521A60BFF376
:103970004F8FBFF36F8F08BD9800002004ED00E06B
:10398000194AD2F81831DBB910B4C2F81C31D2F898
:103990000831B3FA83F3DBB2C3F11F0303EB8301F6
:1039A00089005418A06878B1E06811444068E0606C
:1039B0001031884211D0C36853605DF8044B7047E2
:1039C0000123C2F81C3170474FF0500383F3118874
:1039D000BFF36F8FBFF34F8FFEE7142101FB03236B
:1039E0004068D860E7E700BF980000200E4B1B68D6
:1039F00082B000220133019208D04FF0500383F3CC
:103A00001188BFF36F8FBFF34F8FFEE74FF0500366
:103A100083F31188BFF36F8FBFF34F8F019B002B90
:103A2000FCD002B0704700BF0800002008480068C2
:103A3000006880F308884FF0000080F3148862B6B5
:103A400061B6BFF34F8FBFF36F8F00DF00BF000081
:103A500008ED00E0DFF80C00016841F4700101603E
:103A60007047000088ED00E030B421F001014FF014
:103A70008075074C40F80C4C6FF0020340F8202C86
:103A800040E9021540F8243C30BC4438704700BF80
:103A9000ED390008000000000000000000000000F8
:103AA000074B19680868B0E8F04F80F30988BFF346
:103AB0006F8F4FF0000080F311887047AFF30080E4
:103AC0009C0000204FF0500383F31188BFF36F8FE9
:103AD000BFF34F8F0A4A13680133012B136000D0E4
:103AE0007047084B1B6813F0FF0FF9D04FF05003DD
:103AF00083F31188BFF36F8FBFF34F8FFEE700BFD3
:103B00000800002004ED00E0084A136843B94FF0B4
:103B1000500383F31188BFF36F8FBFF34F8FFEE71E
:103B2000013B13600BB983F3118870470800002034
:103B3000EFF30980BFF36F8F154B1A681EF0100F5B
:103B400008BF20ED108A20E9F04F10602DE9090030
:103B50004FF0500080F31188BFF34F8FBFF36F8F8A
:103B6000FFF70EFF4FF0000080F3118809BC1968C1
:103B70000868B0E8F04F1EF0100F08BFB0EC108AD4
:103B800080F30988BFF36F8F704700BFAFF30080E9
:103B90009C00002008B54FF0500383F31188BFF359
:103BA0006F8FBFF34F8FFFF7B7FD18B1034B4FF087
:103BB00080521A60002383F3118808BD04ED00E0F1
:103BC00030B4094A094D0A4B0A4C0B4800211160D8
:103BD00029601B68A4FB03139B09013B07210360B9
:103BE00030BC1160704700BF10E000E018E000E05A
:103BF0000C000020D34D621014E000E0394B3A4A2B
:103C0000196891423FD01A68384B9A4232D010B5A9
:103C1000374B38491A7882B0FF20D2B2019218701F
:103C20001B78DBB28DF803309DF803309DF803203C
:103C3000072003F05003486010060B7011D50623CF
:103C400000E003469DF803205200D2B28DF8032015
:103C50009DF80320120603F1FF30F2D4032B4B60D2
:103C60001AD04FF0500383F31188BFF36F8FBFF367
:103C70004F8FFEE74FF0500383F31188BFF36F8F30
:103C8000BFF34F8FFEE74FF0500383F31188BFF36C
:103C90006F8FBFF34F8FFEE70198154C164AC0B2E5
:103CA0002070106840F47000106010681B0240F033
:103CB0007040106003F4E0634B60FFF781FF0F4B2F
:103CC00000241C60FFF7C6FE0D4A136843F0404312
:103CD0001360FFF7ABFEFFF753FEFFF787FE2046AA
:103CE00002B010BD00ED00E071C20F4170C20F4183
:103CF00000E400E0C001002020ED00E0080000200A
:103D000034EF00E0114B30B41D461A68824201D2F4
:103D10001346FAE75C681919884203D141682144C7
:103D200059601846446801198A4208D1A9688A4234
:103D300005D0D2E9002121440260416000E0026028
:103D4000984218BF186030BC704700BFC8010020FF
:103D5000F8B53A4D0446FFF7D5FCAA68002A53D0BF
:103D6000EE6834424BD1002C49D004F108035807C7
:103D70001CBF23F007030833002B40D06F699F421C
:103D80003DD32C682D4806E0D4F800C0BCF1000FEC
:103D900004D02046644661689942F5D394422ED0FF
:103DA00022680260CA1A102A10D9E018410708D008
:103DB0004FF0500383F31188BFF36F8FBFF34F8F22
:103DC000FEE742606360FFF79DFF61682A697F1A22
:103DD000002331439742C4E9003104F1080438BF9D
:103DE0002F616F61FFF72CFD63070BD04FF050037D
:103DF00083F31188BFF36F8FBFF34F8FFEE7FFF799
:103E00001FFD00242046F8BD0D4B0E4A5E0718BF6B
:103E1000073322F0070218BF23F007032B60184670
:103E20000027D31A4FF00046C5E90172C5E90433F3
:103E3000C2E90077EE60C0E9002392E7C8010020E4
:103E4000E0010020D83D0020D8B138B5174D50F81A
:103E5000043CEA68134208D14FF0500383F3118801
:103E6000BFF36F8FBFF34F8FFEE750F8081C49B1C7
:103E70004FF0500383F31188BFF36F8FBFF34F8F61
:103E8000FEE77047044623EA020340F8043CFFF7CC
:103E900039FC6A6954F8043CA4F1080013446B61CE
:103EA000FFF730FFBDE83840FFF7CABCC80100206B
:103EB00010B5184B184A194C1A6084B04FF4803171
:103EC00000225960184601219C629A6000921A6192
:103ED0001A7683F82020DA62DA6083F83020CDE9A0
:103EE00001220392D9615961FCF7CCFB70B90A2415
:103EF00001220023694607480293CDE90042FCF7FE
:103F000065FD08B100F00EFD04B010BD00F00AFD23
:103F1000EDE700BFC4400020002001400100000F79
:103F200010B50168154A88B000239142CDE90333EA
:103F3000CDE90533079301D008B010BD02F58C32EE
:103F40000193516C0E4841F480715164516C01F43D
:103F50008071019101990293136B43F00403136381
:103F6000136B03F0040302930122032303A9029CB1
:103F7000CDE90323FCF74EFE08B010BD0020014040
:103F800000080240134870B50646FCF72DFC64217A
:103F90003046FCF7C5FC0A2400253046FCF712FD2C
:103FA000631E13F0FF040544F7D10A48FCF79AFC9E
:103FB000094B05EB4515A3FB0523ED1A03EB55054E
:103FC0002D0A4FF47A7000FB05F0000B1D3080B213
:103FD00070BD00BFC440002061D9E6CB08B5094DD3
:103FE000094C284600224021FCF718FF00224FF41C
:103FF00000612046FCF712FF00F0D4FB0A20FFF717
:1040000067F8EEE7000402400008024080B5084C63
:10401000084F094E094D064A094827603F230021F1
:104020006660A560FEF7BCFEC820FFF751F8F2E716
:10403000584100200102030405060708090A0B0C79
:104040001441002008B500F0FBFA41F28830FFF778
:104050003FF8F8E7034B0360543380200B60106097
:10406000704700BFE03D002070B5174C26460FCECC
:1040700096B001AD0FC596E8070085E8070000215E
:1040800001A8FEF7FBFF114B04F11C0618600FCED0
:1040900008AD0FC596E8070085E80700002108A8CD
:1040A000FEF7ECFF0A4B383418600FCC0FAD0FC58C
:1040B00094E8070085E8070000210FA8FEF7DEFF5F
:1040C000044B186016B070BDA05600080C410020CB
:1040D00010410020544100202DE9F04100248AB015
:1040E000CDE90544CDE907443F4B019409941A6B8F
:1040F000DFF804813D4F3E4D42F080021A631A6B97
:1041000002F080020192019A02941A6B42F00402BA
:104110001A631A6B02F004020292029A03941A6B59
:1041200042F001021A631A6B02F001020392039A31
:1041300004941A6B42F002021A631B6B03F0020331
:104140000493224640461221049BFCF767FE224658
:1041500038464FF40061FCF761FE22462846C02134
:10416000FCF75CFE284601224FF48071FCF756FEF6
:1041700001261222404605A90323CDE9052608930E
:104180000794FCF747FD05A9384620230593CDE9A0
:104190000644FCF73FFD174B0794022205A9284669
:1041A000CDE90523FCF736FD384605A94FF4006339
:1041B0000593CDE906640894FCF72CFD4FF4E073F9
:1041C00005A928460593CDE906640894FCF722FD6D
:1041D000224606210720FCF7B3FC0720FCF7E6FC8B
:1041E0000AB0BDE8F08100BF00380240000802407C
:1041F000000402400000211000000240024B186938
:10420000C0F34010704700BF00080240034B4FF45A
:1042100080129A610A20FCF7F9B900BF0000024041
:10422000024B10229A610A20FCF7F0B9000002400C
:1042300010B582B06424134600940A460146024831
:10424000FDF776FD02B010BD784200200A466423D7
:1042500001460148FDF790BA784200200A466423DF
:1042600001460148FDF740B97842002001220221B1
:104270000148FCF7D3BD00BF00000240002202212C
:104280000148FCF7CBBD00BF0000024070B5002420
:1042900094B0CDE90A44CDE90C44CDE90444CDE91C
:1042A00006441D4A01940394116C1C4B41F080514B
:1042B0001164126C02F080520192019A02941A6801
:1042C00042F480421A601B6803F480430293012188
:1042D0004FF480324FF4800302250298089109922E
:1042E000042178220F9308A80523109111921393AB
:1042F0000E9512950F26FCF7A9FD4FF4A0524FF42E
:10430000805303A80321049505940396CDE9062361
:10431000FCF7B0FF14B070BD0038024000700040E0
:1043200030B56E4C6E4883B03F22002100F0DFFCB8
:104330002046FEF783FB94F8283013B1002384F85D
:10434000283094F8293013B1002384F8293094F8E8
:104350002A30002B40F0AE8094F82B30002B40F038
:104360008B8094F82C3013B1002384F82C3094F80F
:104370002D3013B1002384F82D3094F82E3013B172
:10438000002384F82E3094F82F3013B1002384F8E2
:104390002F3094F8303013B1002384F8303094F883
:1043A000313013B1002384F8313094F8323013B136
:1043B000002384F8323094F8333013B1002384F8AA
:1043C000333094F8343013B1002384F8343094F847
:1043D000353013B1002384F8353094F83630002B93
:1043E00043D194F83730B3BB94F8383063BB94F8BA
:1043F000393013BB94F83A30C3B994F83B3073B9F1
:1044000094F83C302BB13548FEF7EAFB002384F8E2
:104410003C30324803B0BDE83040FEF7ABBB2F481C
:10442000FEF7DEFB002384F83B30E9E72B48FEF77C
:10443000D7FB002384F83A30DFE72848FEF7D0FBAB
:10444000002384F83830D5E72448FEF7C9FB002361
:1044500084F83830CBE72148FEF782FC1F48FEF78E
:10446000BFFB002384F83730BEE71C48FEF7B8FBDB
:10447000002384F83630B4E73F2219491748FEF785
:1044800025FC64233F2216491648FDF7FDFF002551
:104490001248FEF765FC2B462A46294600950F4830
:1044A000FEF7D2FB012240210F48FCF7B7FC84F84D
:1044B0002B5056E700250948FEF762FC2B462A469A
:1044C000294600950548FEF7BFFB01224FF4006125
:1044D0000648FCF7A3FC84F82A503DE7144100206D
:1044E000DC41002098410020000402400008024006
:1044F00038B50268264B9A4200D038BD254C257845
:104500006DB123790D2B12D023496A1C4B552270B3
:10451000012222492248BDE83840FEF743B8402234
:1045200029461D4800F0E3FB23790D2BECD11A4DF1
:104530000023012D237011D81A492846FBF7C8FF24
:1045400040B119492846FBF7C3FF68B9174B6522EC
:104550001A70DDE7154B64221A70D9E72A4619460E
:104560001348FEF71DFCD3E712492846FBF7B0FFBE
:1045700018B90E4B66221A70CAE728460E49FBF797
:10458000A7FF0028C4D1094B68221A70C0E700BFFA
:1045900000440040344000202842002038400020E1
:1045A00098410020385700084057000891400020EB
:1045B00014410020445700084857000870B51A48B5
:1045C000FEF732FDD0B9194E194D06244FF40061A3
:1045D0003046FCF727FC40212846FCF723FC6420EA
:1045E000FCF704F8631E13F0FF04EFD164230F22DD
:1045F00010491148BDE87040FDF746BF0C4D062438
:1046000040212846FCF70EFC6420FBF7EFFF631EF9
:1046100013F0FF04F4D164230F2208490648BDE8D3
:104620007040FDF731BF00BF144100200008024078
:104630000004024074570008984100208857000881
:1046400070B5FFF79FFC40F29E23984206D9FFF712
:1046500099FC40F2B123984224D970BD642307220B
:1046600014491548FDF710FF144B154893F84350B3
:104670000024224665F07F054FF4006183F8435023
:10468000A3F84440FCF7CAFB08220E490A486423F9
:10469000FDF7FAFE22464FF480710B48BDE87040EA
:1046A000FCF7BCBB6423072208490348BDE87040FF
:1046B000FDF7EABE5C570008984100203440002016
:1046C00000080240685700080004024050570008E4
:1046D00000B583B0264C274DFBF7A8FFFFF7D6FDAA
:1046E000FBF75EFFFFF7F8FC00F046F9FFF7E0FB91
:1046F00000F044FA00F018F901221F491F48FDF7A5
:1047000051FF1F481F49204A204B60622560204806
:104710006160A2601F49204A6361204D204BA06167
:104720000720C4E90723C4E90351FCF74DFAFFF75A
:1047300087FFFFF743FF2046FEF7C8F87F2120469A
:10474000FEF71AFC2046FEF70BFB002300931A46E7
:1047500019462046FEF778FA0720FCF727FA20468C
:10476000FEF7ECF9FFF780FCFEF782FCFEE700BFE6
:1047700014410020314200083840002098410020B8
:10478000FD4100084D4200085D4200080D4200084E
:10479000214200087D420008ED0500086D42000836
:1047A0000D060008F8B54E4D2B78643B052B00F242
:1047B0009480DFE803F05E1A81034C034948FBF75D
:1047C00091FE484AC3B201214748FEF7E9FA0122A7
:1047D0004FF400614548FCF721FB4348FEF700FA1F
:1047E0004148FEF72BF90020F8BD3F4F0A24002670
:1047F0003846FEF789FBC0EB001040F39812631EA9
:10480000324413F0FF0496B2F2D13948394B3A4A98
:104810003A49A0FB0670C0F3CF00A3FB00735B090D
:10482000642707FB1303A2FB06029BB2C2F38F129D
:104830002C4800F065FA2B48FBF754FE3B4682B249
:1048400028492F48FDF720FE28782C70F8BD2D4A06
:104850002548682302F8043F01213F23FEF7A0FA10
:1048600001224FF400612148FCF7D8FA002028709B
:10487000F8BD1D48204E1E4CFEF762FB40F6920329
:1048800003FB00F2A6FB02329209A2F6723292B248
:10489000A4FB02321C491348D20800F031FA114837
:1048A000FBF720FE642382B20E491548FDF7ECFDAC
:1048B000002328782B70F8BDFFF764FB0D4A1349DD
:1048C0000346A2FB03425209642404FB12339BB249
:1048D00092B2044800F014FAE1E70020F8BD00BFEE
:1048E000914000201C42002014410020000802409A
:1048F000CDCCCCCC1F85EB51D34D6210A057000816
:1049000098410020944000209C570008AC570008B4
:104910000268034B9A4200D07047FBF7A1BE00BF6C
:1049200000040040704700BF054808B5054B036010
:10493000FCF780FD00B908BDBDE80840FFF7F2BFF5
:1049400068420020000806500268094B9A4200D0D5
:10495000704782B0074B002201925A6B42F040022E
:104960005A635B6B03F040030193019B02B07047F5
:10497000000806500038024038B50F4B0F4A1A6045
:104980004FF482724FF4007510240A215A601846C1
:104990000022C3E90654D962C3E90222C3E9042212
:1049A000C3E908229A62FCF75FFD00B938BDBDE893
:1049B0003840FFF7B7BF00BF784200200030014009
:1049C00070B50168174A88B000239142CDE90333DE
:1049D000CDE90533079301D008B070BD02F58432EC
:1049E0000193516C104841F480515164516C01F4B1
:1049F0008051019101990293136B43F001031363FA
:104A0000136B03F0010302930322052303A9E0259E
:104A10000224029ECDE90354CDE90623FCF7FAF8FF
:104A200008B070BD003001400000024082B00E4B63
:104A300000220092596C41F480415964596C01F490
:104A40008041009100990192196C41F080511964E4
:104A50001B6C03F080530193019B0F216FF0010049
:104A600002B0FCF76DB800BF0038024030B5014617
:104A700089B000221D20FCF763F81D20FCF796F892
:104A80000025164B02951A6C154C42F002021A646E
:104A90001B6C03F0020301A9029303A8029BFCF71D
:104AA000A7FCFCF785FC0F4A0F4925614300A2FBD8
:104AB00003239B0C013B40F2E7322046C4E9013559
:104AC0002160E260FDF7F4FA10B1012009B030BDB9
:104AD0002046FDF771FB09B030BD00BF0038024031
:104AE000D042002083DE1B4300040040704700BF1B
:104AF000FEE700BFFEE700BFFEE700BFFEE700BF26
:104B0000704700BF0220FCF795B900BF0148FDF7D0
:104B10006BBB00BFD04200200148FDF7A7BD00BF1E
:104B2000984100200C4A08B5136833B1184469460F
:104B3000884208D81060184608BD084B1360184416
:104B400069468842F6D900F09DF80C2303604FF0C7
:104B5000FF33184608BD00BF7C40002018430020EA
:104B6000054BD3F888204FF0006142F47002C3F87F
:104B700088209960704700BF00ED00E00B4B0C4AA5
:104B800010B50C211A604FF4E134002218465C6025
:104B90005961C3E902221A61C3E90622FDF7D2FB7B
:104BA00000B910BDBDE81040FFF7BCBE9841002021
:104BB0000044004070B502681B4B88B000249A4244
:104BC000CDE90344CDE90544079401D008B070BD98
:104BD00003F5FA3301941A6C144842F400321A6453
:104BE0001A6C02F400320192019A02941A6B42F09C
:104BF00001021A631B6B03F0010302930C2303A948
:104C00000322039302250723CDE90623029E049580
:104C1000FCF700F8224605212620FBF791FF26200D
:104C2000FBF7C4FF08B070BD004400400000024024
:104C3000DFF834D0002103E00C4B5B5843500431C3
:104C40000B480C4B42189A42F6D30B4A02E0002361
:104C500042F8043B094B9A42F9D3FFF781FF00F079
:104C600017F8FFF735FD704700000220F8570008DD
:104C70000000002074000020740000201443002075
:104C8000FEE70000014B1868704700BF10000020CD
:104C900070B50D4E0D4CA41BA4100025A54209D1E2
:104CA0000B4E0C4C00F028FCA41BA4100025A542C0
:104CB00005D170BD56F8253098470135EEE756F816
:104CC000253098470135F2E7F0570008F057000803
:104CD000F0570008F457000810B5431E0A449142EB
:104CE00000D110BD11F8014B03F8014FF7E7024462
:104CF0000346934200D1704703F8011BF9E7000017
:104D00000EB400B59CB01DAB029006906FF0004150
:104D1000094807910491094953F8042B059100684B
:104D2000019302A900F066F8029B00221A701CB0E1
:104D30005DF804EB03B07047100000200802FFFF8D
:104D40002DE9F0478E689E4282460C469046994671
:104D500037D88A8912F4906F31D0256809696F1AA3
:104D60006569022305EB450595FBF3F509F10103A0
:104D70003B449D4238BF1D46530530D5294600F0BF
:104D800021FB064650B90C23CAF80030A38943F032
:104D90004003A3814FF0FF30BDE8F0873A46216918
:104DA000FFF79AFFA38923F4906343F08003A38164
:104DB000266165613E44ED1B2660A5604E464E456A
:104DC00000D94E4632464146206800F093FAA36867
:104DD0009B1BA36023681E4426600020DCE72A4654
:104DE00000F04AFB06460028E2D12169504600F057
:104DF0009BFAC8E72DE9F04F1D468B891F069DB031
:104E000080460C4616460FD50B696BB9402100F061
:104E1000D9FA2060206128B90C23C8F800304FF07F
:104E2000FF30C8E0402363610023099320238DF8FD
:104E3000293030238DF82A3003954FF0010B374687
:104E40003D4615F8013B0BB1252B3ED1B7EB060AC9
:104E50000BD05346324621464046FFF771FF0130E2
:104E600000F0A480099B534409933B78002B00F089
:104E70009D8000234FF0FF32CDE905230493079373
:104E80008DF853301A932F46052217F8011B50480E
:104E9000FBF736FB049BD0B9D90644BF20228DF81E
:104EA00053201A0744BF2B228DF853202A782A2A30
:104EB00015D0079A2F4600200A25394611F8013BE4
:104EC000303B092B4DD9B8B10FE02F46B8E7404A27
:104ED000801A0BFA00F0184304903D46D3E7039A7A
:104EE000111D12680391002A01DB079204E052426F
:104EF00043F00203079204933B782E2B0CD17B786E
:104F00002A2B33D1039B1A1D1B680392002BB8BFB9
:104F10004FF0FF33023705932E4D39780322284690
:104F2000FBF7EEFA38B14023401B03FA00F0049B74
:104F3000034301370493397827488DF82810062257
:104F40007E1CFBF7DDFA002838D0244B13BB039BF3
:104F5000073323F0070308330393099B4B4409935A
:104F60006DE705FB023201200F46A6E7002301375B
:104F7000059319460A25384610F8012B303A092ABC
:104F800003D9002BC8D00591C6E705FB01210123F9
:104F90000746F0E703AB00932246114B04A94046B5
:104FA000AFF30080B0F1FF3F8146D6D1A3895B0605
:104FB0003FF535AF09981DB0BDE8F08F03AB009306
:104FC0002246074B04A9404600F082F8EAE700BFFA
:104FD000B4570008BA570008BE5700080000000088
:104FE000414D00082DE9F04791461F468A680B693C
:104FF000DDF820809342B8BF1346C9F8003091F81D
:10500000432006460C4612B10133C9F8003023682C
:10501000990642BFD9F800300233C9F8003025683C
:1050200015F0060507D104F1190AE368D9F8002044
:105030009B1AAB4228DC94F843302268003318BF37
:10504000012392062DD404F1430239463046C0476D
:10505000013020D02368E568D9F8002003F006036A
:10506000042B08BFAD1AA36822690CBF25EAE575B9
:1050700000259342C4BF9B1AED184FF000091A3463
:105080004D451AD1002008E00123524639463046EA
:10509000C047013003D14FF0FF30BDE8F087013544
:1050A000C3E7E1185A1C302081F84300224494F8E9
:1050B000451082F843100233C5E7012322463946E2
:1050C0003046C0470130E6D009F10109D8E70000B9
:1050D0002DE9F04301F1430C0C46097E85B06E29A1
:1050E0001746064698460C9A00F0B38022D86329EA
:1050F00036D00AD8002900F0B980582900F0838002
:1051000004F1420584F8421032E0642901D0692993
:10511000F6D120681368050603F104012AD51B683F
:105120001160002B03DA2D225B4284F843206F4884
:105130000A2239E0732900F09D8008D86F2920D019
:105140007029DDD1236843F02003236003E0752933
:1051500017D07829D4D1782384F84530644855E0B5
:105160001368191D1B68116004F1420584F8423070
:1051700001238CE01B68116010F0400F18BF1BB2B8
:10518000CFE713682568181D1060280601D51B6835
:1051900002E06806FBD51B8854486F2914BF0A2219
:1051A0000822002184F843106568A560002DC0F234
:1051B0009580216821F004012160002B3DD1002D54
:1051C00040F08E806546082A0BD12368DB0708D59E
:1051D000236962689A42DEBF302305F8013C05F17D
:1051E000FF35ACEB05032361CDF800803B4603AAF5
:1051F00021463046FFF7F6FE01304DD14FF0FF302B
:1052000005B0BDE8F083394884F84510136821687B
:105210001D1D1B6815600A060BD5CA0744BF41F067
:10522000200121601BB9226822F020022260102296
:10523000B7E74D0648BF9BB2EFE76546B3FBF2F117
:1052400002FB1133C35C05F8013D0B460029F5D183
:10525000B9E7136825686169181D106028061B6886
:1052600001D5196002E06A06FBD51980002323618D
:105270006546B9E71368191D11601D686268002151
:105280002846FBF73DF908B1401B60606368236165
:10529000002384F84330A7E723692A46394630467D
:1052A000C0470130AAD023689B0713D4E068039B52
:1052B0009842B8BF1846A3E701234A46394630460C
:1052C000C04701309AD00135E368039A9B1AAB427C
:1052D000F2DCEBE7002504F11909F5E7002BACD16E
:1052E000037884F8423004F142056CE7C5570008A2
:1052F000D6570008884210B501EB020307D8421EBA
:1053000099420AD011F8014B02F8014FF8E78342A5
:10531000F5D98118D21AD34200D110BD13F8014D2E
:1053200001F8014DF7E7000038B50546002945D0E2
:1053300051F8043C0C1F002BB8BFE41800F0D2F861
:105340001F4A1368104633B9636014602846BDE8ED
:10535000384000F0C8B8A3420CD9216862189342C3
:1053600004BF1A685B68636004BF5218226004605F
:10537000ECE713465A680AB1A242FAD919685818DC
:10538000A0420BD120680144581882421960DDD137
:10539000106852685A6001441960D7E702D90C239B
:1053A0002B60D3E7206821188A4204BF1168526835
:1053B000626004BF091821605C60C7E738BD00BFA8
:1053C0008440002070B5CD1C25F0030508350C2D58
:1053D00038BF0C25002D064601DBA94203D90C235A
:1053E0003360002070BD00F07DF8214A146821462A
:1053F00091B9204C23681BB9304600F063F8206057
:105400002946304600F05EF8431C24D10C2333605B
:10541000304600F068F8E4E70B685B1B18D40B2BF0
:105420000FD90B60CD50CC18304600F05CF804F179
:105430000B00231D20F00700C31AD3D05A42E250BC
:10544000D0E78C424B6816BF636013600C46EBE7F5
:105450000C464968CCE7C41C24F00304A04205D0E4
:10546000211A304600F02EF80130CFD02560DBE75E
:105470008440002088400020F8B5074614460E46B8
:1054800021B91146BDE8F840FFF79CBF22B9FFF7EC
:105490004BFF25462846F8BD00F026F8A0420FD263
:1054A00021463846FFF78EFF05460028F2D03146E8
:1054B0002246FFF711FC31463846FFF735FFE9E792
:1054C0003546E7E738B5064C002305460846236015
:1054D000FFF728FB431C02D1236803B12B6038BDC2
:1054E000104300207047704751F8043C181F002BF0
:1054F000BCBF0B58C0187047F8B500BFF8BC08BC5B
:105500009E467047F8B500BFF8BC08BC9E46704781
:1055100007020100018CBA80081300080000270070
:105520000006110002004000051100010360071190
:1055300001030003301808110204000A0406080DD4
:10554000111009000814000F3100000000091111AA
:105550000500038B891B890B11120700840108FFCA
:10556000FF00021011120C0822010030300001046B
:1055700080003F001011120C140000000000000019
:1055800000000000001011120C20000000000000BC
:105590000000000000000D1112092C0000000000A6
:1055A000000000001011200C000300070BB80005DC
:1055B0008CBA800003051120010C060C112008187C
:1055C00001000803800030200D112009220055063B
:1055D0000CAB060602000B1120072C0012C0C20201
:1055E00042E00511200135E20D1120093811131395
:1055F000001A400000280D11200942A403D6030020
:10560000E20180FF051120014C02051120014E40EE
:1056100005112001510A1011210C00FFBA0F51CFC2
:10562000A9C9FC1B1E0F011011210C0CFCFD15FF5C
:10563000000FCCA130A021D11011210C18B9C9EA5A
:105640000512110A0415FC03000811220400087F4A
:10565000003D0B112307002C0E0B040C73031011DB
:10566000300C000000000000000000000000000CF2
:10567000114008004409D89D4EC520FE00000000DE
:10568000020000018CBA800020FFFFFF237F000092
:1056900015020000150100001503000022FF0000A4
:1056A0002C570008DD3F000800000000000000004B
:1056B00080000000000000000000000020570008EB
:1056C0000D40000800000000000000008000000005
:1056D00000000000000000001457000845400008CA
:1056E000FDFF00000000000080000000000000003E
:1056F00000000000000000000000000001020304A0
:1057000006070809000000000102030449444C4553
:10571000000000006D795461736B303300000000AD
:105720006D795461736B303200000000646566610E
:10573000756C745461736B0074656D704300000088
:1057400033763300626174005262617400000000BD
:105750002B4C4F574241540A000000002B42415449
:105760002F4E4F0A000000002B5057525F4F464605
:105770000A0000002B5349343436335F494E4954F4
:105780002F4F4B0A000000002B5349343436335F4F
:10579000494E49542F4E4F0A0000000025640A006C
:1057A00025642E252E32640A0000000025642E2573
:1057B000640A0000232D302B2000686C4C006566C5
:1057C0006745464700303132333435363738394152
:1057D0004243444546003031323334353637383968
:0857E00061626364656600006C
:0857E80018AAFF7F0100000078
:0457F000B5010008F7
:0457F4009101000817
:1057F8000100000010000000AAAAAAAA0024F400D0
:10580800140000200000000000000000000000005C
:105818000000000000000000000000000000000080
:105828000000000000000000000000000000000070
:105838000000000000000000000000000000000060
:105848000000000000000000000000000000000050
:105858000000000000000000000000000000000040
:04586800000000003C
:0400000508004C3172
:00000001FF
